:020000040800F2
:100000006817002001010008090100080B01000821
:100010000D0100080F010008110100080000000098
:1000200000000000000000000000000013010008B4
:10003000150100080000000017010008F95F000822
:100040001B0100081B0100081B0100081B01000820
:100050001B0100081B0100081B0100081B01000810
:100060001B0100081B0100081B0100081B01000800
:100070001B0100081B0100081B0100081B010008F0
:100080001B0100081B0100081B0100084D66000849
:10009000A96700081B0100081B0100081B010008DC
:1000A0001B0100081B0100081B0100081B010008C0
:1000B0001B0100081B0100081B0100081B010008B0
:1000C0001B0100081B0100081B0100081B010008A0
:1000D0001B0100082F6400081B010008376400089A
:1000E0001B0100081B0100081B010008DFF80CD0F1
:1000F00000F0B4FB00480047D172000868170020E8
:100100000648804706480047FEE7FEE7FEE7FEE7B1
:10011000FEE7FEE7FEE7FEE7FEE7FEE71D600008FC
:10012000ED000008F0B480EA0102D40F4200B2EB07
:10013000410F02D20246084611464A0042D0C30D82
:10014000DDB2C1F3C752AD1A202D35DAC1F3160165
:1001500041F4000204B15242C5F1200602FA06F150
:100160002A411044B3EBD05F23D0C4B1012DA0EBE2
:10017000C35009DCF0BC4FF0004202EAC352DBB2CC
:1001800000F5000000F058BA400000F1807000EB6C
:10019000C350A0F1807040EAD170490009E04908DD
:1001A00041EAC071A0EBC35000F50000400800EB2D
:1001B000C350F0BC00F037BA6142012202EB4101AA
:1001C000001BF6E7F0BC704781F00041AAE780F021
:1001D0000040A7E780EA010210B502F000434000AA
:1001E00022D04A001FD0010E01EB1261C0F356006D
:1001F000C2F3560240F4000042F40002A0FB0220C9
:1002000000047F39140400D0401C50EA124001D48D
:100210004000491EC2B20C0604EBD010401C40083E
:10022000802A02D003E0002010BD20F00100002948
:1002300000DA0020184310BD30B480EA010202F059
:10024000004530F0004221F0004013D090B1C30DC2
:10025000D40DC2F31601C0F31600E41A41F40001F4
:1002600040F400027D34914201D3641C00E0490057
:10027000002C02DA30BC002070474FF4000000234D
:10028000914201D3891A034340084FEA4101F7D153
:1002900051B1914202D14FF0004105E002D24FF03E
:1002A000010101E06FF0010103EBC450284430BCB0
:1002B00000F0B9B92DE9FE4F804681EA0300C00F76
:1002C0000C46009021F0004123F00045B8EB0200FD
:1002D000A94105D24046214690461C460B4602469F
:1002E00023F00040104347D0270DC7F30A00C3F3A3
:1002F0000A510290401A019040286BDAC3F31300B0
:1003000040F4801B0098924620B10023D2EB030AF0
:1003100063EB0B0B01985946C0F14002504600F0C8
:1003200061F906460D4650465946019A00F069F9B2
:1003300010EB08006141002487EA115284EAE77358
:100340001A4340D0009A62B3019A012A4FEA075239
:1003500015DC001B61EB02014FF0004202EA07527C
:10036000CDE90042001C41F5801132462B4600F0D9
:10037000A0F903B0BDE8F08F40462146F9E7001B25
:1003800061EB0201001C41F5801300185B4120184D
:10039000A2F5001747EB030140EAD570B6196D418D
:1003A00011E06D084FEA360645EAC0754FEA07527C
:1003B000001B61EB0201001C41F5801149084FEA66
:1003C00030000019514132462B4603B0BDE8F04FD2
:1003D00000F060B90098012240000023D0EB020237
:1003E00063EBE073009821464FEAE074B8EB00003D
:1003F00061EB0401E9E783F000435BE781F0004132
:1004000058E72DE9FE4F81EA030404F0004421F08F
:10041000004100944FF0000B23F0004350EA010428
:100420005ED052EA03045BD0C3F30A54C1F30A5509
:100430002C44A4F2F3340194A0FB0254C1F3130141
:1004400041F48011C3F3130343F4801301FB02440E
:1004500000FB034E840A970A44EA815447EA835713
:10046000A4FB076802958D0A05FB07854FEA932CCC
:1004700004FB0C542705029D4FEA065847EA16373D
:10048000B5EB08056EEB070C870E920E47EA811755
:1004900042EA8312A7FB0201B6EB0B0164EB0004F6
:1004A0002B0D43EA0C335E1844EB1C50DA465146E0
:1004B000E7FB0201C5F313044FEA0B3343EA14537D
:1004C0004FEA0432019C43EA0603A4F10C040294AF
:1004D000009CCDE900B400F0ECF803B0BDE8F08F6B
:1004E00000200146F9E7C10F80EAE0700844CA071E
:1004F0009623002100F0A0B896230022114600F0B8
:100500009BB800F0004220F00040C10DC0F316007F
:1005100040F400007F2901DA00207047962903DCAF
:10052000C1F19601C84001E096398840002AF4D014
:100530004042704720F00040C10DC0F3160040F467
:1005400000007F2901DA00207047962903DCC1F101
:100550009601C840704796398840704700F00042C5
:1005600030F000400AD0C10D01F56071C0F31600F3
:1005700042EA0151C208400711437047002001467A
:10058000704701F0004330B421F0004150EA01020D
:1005900006D00A0DA2F56072C1F31301002A02DC35
:1005A00030BC00207047440F44EAC104C100E01889
:1005B00030BC00EBC25000F036B80000002801DB70
:1005C000C0F10040002901DBC1F1004181427047C8
:1005D000002801DBC0F10040002901DBC1F100412E
:1005E00088427047202A04DB203A00FA02F10020FA
:1005F00070479140C2F1200320FA03F31943904061
:100600007047202A06DBCB17203A41FA02F043EA72
:10061000E07306E041FA02F3D040C2F120029140BB
:100620000843194670470029A8BF7047401C49007D
:1006300008BF20F00100704710B4B0FA80FC00FA47
:100640000CF050EA010404BF10BC704749B1CCF172
:10065000200421FA04F411FA0CF118BF01212143FE
:100660000843A3EB0C01CB1D4FEA00614FEA1020B9
:1006700042BF002010BC704700EBC350104400295B
:10068000A4BF10BC7047401C490008BF20F0010007
:1006900010BC704710B5141E73F1000408DA401C3A
:1006A00041F1000192185B411A4301D120F0010091
:1006B00010BD2DE9F04D92469B4611B1B1FA81F281
:1006C00002E0B0FA80F220329046FFF78BFF04463A
:1006D0000F4640EA0A0041EA0B0153465A460843D6
:1006E00013D0114653EA010019D0C8F14002504618
:1006F00000F0C6F805460E46504659464246FFF7FA
:1007000071FF084305D0012004E020463946BDE8CA
:10071000F08D0020054346EAE0762C4337430A98E3
:100720006305E40AA0EB08000022FD0A44EA4754EE
:100730000A3002D500200146E9E701051019694198
:10074000DDE9084500196941BDE8F04DA2E72DE952
:10075000F04D81EA030404F0004B21F000451446FB
:100760004FF0000A23F0004150EA050220D054EA7D
:1007700001021DD0C5F30A570246C5F31303C1F3A6
:100780001300C1F30A5640F4801543F48013A7EB1D
:100790000608101BD64608F2FD3873EB050002D39D
:1007A00008F1010801E092185B41B8F1000F03DA8B
:1007B00000200146BDE8F08D00204FF48011064670
:1007C00084460EE0171B73EB050705D3121B63EB82
:1007D000050306434CEA010C49084FEA3000921821
:1007E0005B4150EA0107EDD152EA030012D082EAE0
:1007F000040083EA0501084305D0101BAB4106D273
:100800000122002306E000224FF0004302E06FF0D7
:10081000010253101AEB06004CEB085110EB0A00D2
:1008200041EB0B01BDE8F04DFFF734BF70B521F08F
:10083000004303430CD0C1F30A550024D5EB040553
:1008400064EB0403D617AD1AB34102DB0020014666
:1008500070BD201841EB025170BD0000064C074DE1
:1008600006E0E06840F0010394E807009847103480
:10087000AC42F6D3FFF73EFC807C0008A07C000869
:10088000202A04DB203A21FA02F00021704721FAE5
:1008900002F3D040C2F1200291400843194670474C
:1008A0002DE9F04D00231A461B1A8A4103DB002074
:1008B0000146BDE8F08DC1F30A52C1F3130141F4C2
:1008C00080154FF0000BD10702D100186D41521E68
:1008D0000027044640F2FF11384601EB620A3E460B
:1008E0008046024600204FF48011FFF7C9FFC2196D
:1008F0007141BB1846EB0100B4EB030C75EB000C27
:1009000004D3E41A65EB000517460E46241908F1D6
:1009100001006D4180463428E3DDF91946EB0600FD
:10092000091BA84103D24FF0FF32134601E0002219
:1009300013461BEB070046EB0A51BDE8F04DFFF7ED
:10094000A9BE70B58C1810F8015B15F0070301D132
:1009500010F8013B2A1106D110F8012B03E010F822
:10096000016B01F8016B5B1EF9D12B0705D4002345
:10097000521E0DD401F8013BFAE710F8013BCB1AE7
:10098000921C03E013F8015B01F8015B521EF9D5DC
:10099000A142D8D3002070BD2DE9F04387B0F648BE
:1009A0000078F649097890FBF1F201FB1201F34857
:1009B0000078401E814202D10120F1490871EE48C1
:1009C0000078F049097890FBF1F201FB1201ED4843
:1009D0000078401E814202D10120E9494871E64871
:1009E0000078E949097890FBF1F201FB1201E64831
:1009F0000078801E814202D10120E1490874DE485E
:100A00000078E249097890FBF1F201FB1201DF481E
:100A10000078401E814202D10120D949C870D648D1
:100A20000078DB49097890FBF1F201FB1201D8480C
:100A30000078401E814202D10120D1490873CE487E
:100A40000078D449097890FBF1F201FB1201D148FA
:100A50000078801E814202D10120C9498873C648AE
:100A60000078CD49097890FBF1F201FB1201CA48E8
:100A70000078801E814202D10120C149C873BE485E
:100A80000078C649097890FBF1F201FB1201C348D6
:100A90000078C01E814202D10120B9494874B6488D
:100AA0000078BF49097890FBF1F201FB1201BC48C4
:100AB0000078C01E814204D1B148807C401CB049FE
:100AC0008874AD480078401CC0B2AB490870C82893
:100AD00001DD00200870AA48007840B1A84A51788A
:100AE000107800F03FFC0020A54908708DE1A44873
:100AF000807860B10020A24988700090A94882885F
:100B000041884FF4C873012000F0F4FF7DE19C4858
:100B1000C07878B100209A49C870A34800780021B5
:100B2000A24BCDE900105A6D196DD86C002300F06E
:100B3000C3FE6AE19248407C18B100209049487495
:100B400063E18F48007C28B100208D49087400F0D3
:100B500055FF5AE18A48007978B300208849087126
:100B60009349086BFFF7CDFC04B29149C86AFFF7BF
:100B7000C8FC05B28E49886AFFF7C3FC06B28C49EF
:100B80008869FFF7BEFC07B289494869FFF7B9FCDD
:100B90000FFA80F886490869FFF7B3FC0FFA80F96D
:100BA0000020CDE90140039033463A464146009586
:100BB0000490484600F0B2FD27E1FFE77048407915
:100BC00018B100206E4948711FE16D48007BA0B14B
:100BD00000206B49087302900390049005907548BB
:100BE000408974490989734CCDE9001063882288D3
:100BF000E188A08800F0E0FC07E16148807BA8B1B3
:100C000000205F4988730090019002906A4C039025
:100C1000E488A3B2684CA488A2B2674C6488A1B2ED
:100C2000654C2488A0B200F007FBEEE05448C07B7E
:100C300040B100205249C8734FF4E4717B2000F0AA
:100C400075FCE2E04E48807980B300204C49887101
:100C50005448B0F8900001B25248B0F88C0002B28B
:100C60005048B0F8880000B24E4BB3F884301BB245
:100C7000CDE90230CDE904214A48B0F8800000B245
:100C80004849B1F87C1009B2CDE900104548B0F8E8
:100C9000780003B24348B0F8740002B24148B0F89B
:100CA000700001B2012000F07FFBAEE0FFE73448A6
:100CB000C07980B300203249C8713A48B0F86C005E
:100CC00000B23849B1F8681009B2364AB2F8642067
:100CD00012B2344BB3F860301BB2CDE90232CDE929
:100CE00004103048B0F85C0000B22E49B1F858103A
:100CF00009B2CDE900102B48B0F8540003B22948DE
:100D0000B0F8500002B22748B0F84C0001B20220FF
:100D100000F04AFB79E0FFE71948007AC0B10020F3
:100D2000174908720290039004900590009001907A
:100D30001C48B0F89C0003B21A48B0F8980002B200
:100D40001848B0F8940001B2032000F02DFB5CE0DD
:100D50000B48407A78B1002009494872029003900C
:100D6000049005900090034602460146019004203D
:100D700000F01AFB49E021E0BE000020BF00002087
:100D800008090020C0000020C1000020C20000208F
:100D9000C3000020C4000020C5000020C6000020C1
:100DA000C700002068080020CC0000204C00002074
:100DB000F00A002080090020340000201548807AC5
:100DC00078B1002013498872029003900490059036
:100DD00000900346024601460190052000F0E4FA27
:100DE00013E00C48C07A78B100200A49C87202901A
:100DF000039004900590009003460246014601903E
:100E0000062000F0D1FA00E000BF05F0B3FD07B006
:100E1000BDE8F0830809002070B504460D460026A1
:100E2000002004E0215C3144CEB2411CC8B2691EEE
:100E30008142F7DC601910F8010CB04200D070BD9F
:100E40002078AA2802D16078AF2800D0F7E7A078F0
:100E5000012821D12079012802D1A04908701BE086
:100E60002079022803D101209C49487014E02079A0
:100E7000032804D101209949087048700CE02079BA
:100E8000A02803D100209649087005E02079A12808
:100E900002D1012092490870A078022814D120794B
:100EA000012806D18F498871C8710872487288720A
:100EB000C8722079A02802D101208A49887020793F
:100EC000A12801D101F032F8A078032832D1022004
:100ED000854948702079617941EA002083498880FA
:100EE000A079E17941EA00208049C880207A617ABE
:100EF00041EA00207D490880A07AE17A41EA002099
:100F00007A494880207B617B41EA0020774908814B
:100F1000A07BE17B41EA002074494881207C617C10
:100F200041EA002071498881A07CE17C41EA0020EF
:100F30006E49C881A07810284AD12079000200B2F9
:100F4000617908436A490867A079000200B2E17933
:100F5000084367494867207A000200B2617A084373
:100F600063498867A07A000200B2E17A08436049C9
:100F7000C867207B000200B2617B08435C49C1F86E
:100F80008000A07B000200B2E17B08435849C1F811
:100F90008400207C000200B2617C08435449C1F8FF
:100FA0008800A07C000200B2E17C08435049C1F8EF
:100FB0008C00207D000200B2617D08434C49C1F8DD
:100FC0009000A078314600F00BF9012049490880D3
:100FD000A078112845D12079000200B26179084338
:100FE0004349C864A079000200B2E179084340494E
:100FF0000865207A000200B2617A08433C494865DE
:10100000A07A000200B2E17A084339498865207B62
:10101000000200B2617B08433549C865A07B00022D
:1010200000B2E17B084332490866207C000200B22E
:10103000617C08432E494866A07C000200B2E17C36
:1010400008432B498866207D000200B2617D084379
:101050002749C866A078314600F0C2F8012025492A
:101060000880A07812281ED12079000200B2617990
:1010700008431F49C1F89400A079000200B2E17949
:1010800008431B49C1F89800207A000200B2617A37
:1010900008431749C1F89C00A078314600F0A0F839
:1010A000012014490880A078132806D1A078314681
:1010B00000F096F801200F490880A078142803D189
:1010C000A078314600F08CF8A078152803D1A078DC
:1010D000314600F085F800BFB1E60000F00A0020BC
:1010E000CC000020080900204000002080090020DA
:1010F00068080020BC00002010B504463448007881
:1011000038B9AA2C05D10120314908703148047042
:101110005DE02F480078012807D1AF2C05D10220CF
:101120002B4908702B48447051E029480078022868
:1011300007D1F12C05DA0320254908702548847071
:1011400045E02348007803280CD1322C0ADA042029
:101150001F4908701F48C4701F48047000201F49B1
:10116000087034E01A480078042819D11A48007829
:10117000002815DD18480078401E174908701748E8
:10118000007816490978491C144A1170001D11494C
:101190000C5411480078D0B905200D49087016E0AC
:1011A0000B48007805280FD10020094908700B482A
:1011B0000078001D07490C5408480078401DC1B252
:1011C0000448FFF729FE02E000200149087010BD25
:1011D000CA0000204D090020C8000020C9000020DE
:1011E00070B504460D46AA200D4908704870EF20DE
:1011F00088700220C87008460471457100260020DE
:1012000005E00749095C3144CEB2411CC8B206284A
:10121000F7DB03488671072100F004F870BD000079
:101220001B09002070B505460C462146014801F017
:101230000DF870BD1B0900207FB50024AA222146AD
:10124000641C474842542146641C425406222146ED
:10125000641C425400222146641C42549DF8012023
:101260002146641C42549DF800202146641C4254CF
:101270009DF805202146641C42549DF80420204618
:10128000611CCCB236490A549DF809202046611CE5
:10129000CCB233490A549DF808202046611CCCB2D8
:1012A0002F490A549DF80D202046611CCCB22C49D0
:1012B0000A549DF80C202146601CC4B228484254B0
:1012C0009DF821202046611CCCB225490A549DF886
:1012D00020202046611CCCB221490A549DF82520CB
:1012E0002046611CCCB21E490A549DF82420204699
:1012F000611CCCB21A490A549DF829202046611C71
:10130000CCB217490A549DF828202046611CCCB263
:1013100013490A549DF82D202046611CCCB2104977
:101320000A549DF82C202046611CCCB20C490A546A
:10133000201FC8700025002005E00949095C2944E8
:10134000CDB2411CC8B2A042F7DB2046611CCCB232
:1013500003490D5421460248FFF764FF7FBD00009A
:101360001B09002070B504460D46AA200D490870DF
:101370004870EE2088700220C870084604714571DC
:101380000026002005E00749095C3144CEB2411C2B
:10139000C8B20628F7DB034886710721FFF742FF32
:1013A00070BD00001B0900202DE9F84F05460E46D0
:1013B00017469846DDE90AAB0024AA222146641CA0
:1013C000594842542146641C425405F10F00C2B2F0
:1013D0002146641C5448425400222146641C425455
:1013E00000969DF801202146641C42549DF800207F
:1013F0002146641C425400979DF801202146641C3C
:1014000042549DF800202046611CCCB246490A5443
:10141000CDF800809DF801202046611CCCB24249E5
:101420000A549DF800202046611CCCB23E490A5463
:10143000CDF800A09DF801202046611CCCB23A49AD
:101440000A549DF800202046611CCCB236490A544B
:10145000CDF800B09DF801202046611CCCB2324985
:101460000A549DF800202046611CCCB22E490A5433
:101470000C9800909DF801202046611CCCB22A49AE
:101480000A549DF800202046611CCCB226490A541B
:101490000D9800909DF801202046611CCCB2224995
:1014A0000A549DF800202046611CCCB21E490A5403
:1014B0000E9800909DF801202046611CCCB21A497C
:1014C0000A549DF800202046611CCCB216490A54EB
:1014D0000F9800909DF801202146601CC4B212486C
:1014E00042549DF800202046611CCCB20E490A549B
:1014F000201FC8704FF00009002006E00A49095C6F
:10150000494401F0FF09411CC8B2A042F6DB204665
:10151000611CCCB2044901F8009021460248FFF753
:1015200081FEBDE8F88F00001B090020F8B50546D4
:101530000E460024AA222146641C1E48425421461D
:10154000641C425405222146641C42540022214658
:10155000641C425400959DF801202146641C4254AD
:101560009DF800202146641C425400969DF80120FD
:101570002146641C42549DF800202146601CC4B2E0
:101580000C484254201F0B49C8700027002005E07A
:101590000849095C3944CFB2411CC8B2A042F7DB0C
:1015A0002046611CCCB203490F5421460148FFF785
:1015B00039FEF8BD1B0900207FB50024AA22214670
:1015C000641C554842542146641C4254032221465F
:1015D000641C425400222146641C42549DF80120A0
:1015E0002146641C42549DF800202146641C42544C
:1015F0009DF805202146641C42549DF80420204695
:10160000611CCCB244490A549DF809202046611C53
:10161000CCB241490A549DF808202046611CCCB246
:101620003D490A549DF80D202046611CCCB23A4930
:101630000A549DF80C202046611CCCB236490A544D
:101640009DF821202046611CCCB233490A549DF8F4
:1016500020202146601CC4B22F4842549DF825200A
:101660002046611CCCB22C490A549DF82420204607
:10167000611CCCB228490A549DF829202046611CDF
:10168000CCB225490A549DF828202046611CCCB2D2
:1016900021490A549DF82D202046611CCCB21E49D8
:1016A0000A549DF82C202046611CCCB21A490A54D9
:1016B0009DF831202046611CCCB217490A549DF890
:1016C00030202046611CCCB213490A549DF83520C5
:1016D0002046611CCCB210490A549DF834202046A3
:1016E000611CCCB20C490A54201FC8700025002090
:1016F00005E00949095C2944CDB2411CC8B2A042A9
:10170000F7DB2046611CCCB203490D542146024848
:10171000FFF788FD7FBD00001B0900202DE9F84F71
:1017200005460E4617469846DDE90AAB0024AA2274
:101730002146641C5F4842542146641C42540222E4
:101740002146641C425400222146641C42540095E8
:101750009DF801202146641C42549DF8002021463A
:10176000641C425400969DF801202146641C42549A
:101770009DF800202146601CC4B24E484254009798
:101780009DF801202046611CCCB24A490A549DF8BC
:1017900000202046611CCCB246490A54CDF8008096
:1017A0009DF801202046611CCCB242490A549DF8A4
:1017B00000202046611CCCB23E490A54CDF800A05E
:1017C0009DF801202046611CCCB23A490A549DF88C
:1017D00000202046611CCCB236490A54CDF800B036
:1017E0009DF801202146601CC4B2324842549DF845
:1017F00000202146601CC4B22E4842540C98009030
:101800009DF801202046611CCCB22A490A549DF85B
:1018100000202046611CCCB226490A540D98009045
:101820009DF801202046611CCCB222490A549DF843
:1018300000202046611CCCB21E490A540E9800902C
:101840009DF801202046611CCCB21A490A549DF82B
:1018500000202046611CCCB216490A54002000909A
:101860009DF801202046611CCCB212490A549DF813
:1018700000202046611CCCB20E490A54201FC870BB
:101880004FF00009002006E00A49095C494401F0D4
:10189000FF09411CC8B2A042F6DB2046611CCCB255
:1018A000044901F8009021460248FFF7BBFCBDE85F
:1018B000F88F00001B0900202DE9FE4F81460D46E0
:1018C00016461F46DDE90CAB00240197AA222146EB
:1018D000641C484842542146641C4254012221465B
:1018E000641C425400222146641C4254424948462A
:1018F000FEF770FC0090FEF704FE00B202909DF827
:1019000009202146641C3B4842549DF8082021468A
:10191000641C425438492846FEF75CFC0090FEF7F0
:10192000F0FD00B202909DF809202146641C314868
:1019300042549DF808202046611CCCB22D490A541F
:101940002D493046FEF746FC0090FEF7DAFD00B266
:1019500002909DF809202046611CCCB225490A540A
:101960009DF808202046611CCCB222490A549DF8FB
:1019700007202046611CCCB21E490A549DF806205F
:101980002046611CCCB21B490A549DF80520204614
:10199000611CCCB217490A549DF804202046611CF2
:1019A000CCB214490A542046611CCCB2114901F84A
:1019B00000A02046611CCCB20E4901F800B0201FE7
:1019C000C8704FF00008002006E00A49095C414455
:1019D00001F0FF08411CC8B2A042F6DB2046611CA2
:1019E000CCB2044901F8008021460248FFF71AFCF6
:1019F000BDE8FE8F1B0900200000C84238B5002456
:101A0000AA222146641C384842542146641C425490
:101A1000F1222146641C425400222146641C425497
:101A200032490868FEF76DFD00B200909DF8012074
:101A30002146641C2C4842549DF800202146641C19
:101A400042542A490869FEF75CFD00B200909DF8F7
:101A500001202146641C244842549DF80020214660
:101A6000601CC4B22048425421494869FEF749FD30
:101A700000B200909DF801202046611CCCB21A49AA
:101A80000A549DF800202046611CCCB216490A5425
:101A90001649C869FEF735FD00B200909DF8012097
:101AA0002046611CCCB210490A549DF80020204603
:101AB000611CCCB20C490A54201FC87000250020BC
:101AC00005E00949095C2944CDB2411CC8B2A042D5
:101AD000F7DB2046611CCCB203490D542146024875
:101AE000FFF7A0FB38BD00001B0900200C080020F8
:101AF0008C0700207FB505460024AA222146641CDD
:101B00002C4842542146641C425400222146641C45
:101B100042542146641C42542146641C45549DF89D
:101B200005202146641C42549DF804202146641C73
:101B300042549DF809202046611CCCB21D490A542C
:101B40009DF808202046611CCCB21A490A549DF821
:101B50000D202046611CCCB216490A549DF80C2079
:101B60002046611CCCB213490A549DF8212020461E
:101B7000611CCCB20F490A549DF820202046611CFC
:101B8000CCB20C490A54201FC8700026002005E082
:101B90000849095C3144CEB2411CC8B2A042F7DB0F
:101BA0002046611CCCB203490E5421460148FFF780
:101BB00039FB7FBD1B09002018B50246002016E046
:101BC0004B1E441CA3420ADB0B4BC35A00939DF8E7
:101BD000003013549DF80140431CD45405E0064BDB
:101BE000C35A00939DF800301354831C98B2884266
:101BF000E6DB012018BD0000000001082DE9F041DE
:101C000005460E4601F0E6FE154801F083FE8046CB
:101C1000B8F1040F02D00020BDE8F08100241BE0E1
:101C2000701E611C884206DB295D601C285C01EB8C
:101C3000002087B203E0285D00F57F4087B20849A5
:101C40006018394601F0A6FE8046B8F1040F01D0B5
:101C50000020E1E7A01C84B2B442E1DB0120DBE715
:101C6000000001084FF480700149086070470000CF
:101C7000140C01404FF48070014908607047000067
:101C8000100C014008B50121084603F063FC012156
:101C90000A4801F049FF0121082003F05BFC1020F5
:101CA0008DF8030003208DF802004FF48070ADF82A
:101CB00000006946024801F0ACFE08BD0002300099
:101CC000000C01401CB505220E49302000F004F93B
:101CD00005226946102000F0C5F8002408E01DF830
:101CE00004000849095D884200D003E0601CC4B2CA
:101CF000052CF4DB00BF052C01D101201CBD002008
:101D0000FCE70000F400002070B5072000F0C4F8E4
:101D1000044604F04000E8B1602000F0BDF805463C
:101D2000212D12DA2A461349612000F09BF829463A
:101D30001048FFF771F829460E4804F0EBFD0E48F5
:101D40000078401C0C49087003E0FF21E22000F0FD
:101D5000DCF800BF04F0100030B104F0010018B14D
:101D6000FF21E12000F0D1F82146272000F0CDF836
:101D700070BD0000080E0020FF00002070B5044672
:101D80000D46052235492A2000F0A6F805223449DF
:101D9000302000F0A1F80121212000F0B6F8012147
:101DA000222000F0B2F81A21242000F0AEF82946D3
:101DB000252000F0AAF80F21262000F0A6F8012C1B
:101DC00008D1FF21312000F0A0F80F21202000F0E1
:101DD0009CF841E0022C08D1FF21312000F095F859
:101DE0000E21202000F091F836E0032C1AD1FF21BB
:101DF000E12000F08AF8FF21E22000F086F80F21B0
:101E0000202000F082F8502000F056F9732000F0F6
:101E100053F901213C2000F078F806213D2000F024
:101E200074F819E00E21202000F06FF8FF21E12066
:101E300000F06BF8FF21E22000F067F8502000F07E
:101E40003BF9732000F038F901213C2000F05DF8E7
:101E500006213D2000F059F870BD0000F900002077
:101E6000F40000202DE9F04107460D46164600F02B
:101E7000C5F8384600F020F98046002405E000202F
:101E800000F01AF92855601CC4B2B442F7DB00F028
:101E9000ABF84046BDE8F08170B5044600F0AEF8FE
:101EA000204600F009F9002000F006F9054600F090
:101EB0009BF8284670BD000070B504460D4605220B
:101EC00004492A2000F008F82A462146A02000F004
:101ED00003F870BDF40000202DE9F04107460D46DF
:101EE000164600F08BF8384600F0E6F880460024ED
:101EF00004E0285D00F0E0F8601CC4B2B442F8DBF6
:101F000000F072F84046BDE8F08170B505460C4619
:101F100000F074F8284600F0CFF80646204600F09E
:101F2000CBF800F061F8304670BD000010B5AA2073
:101F300020490870C8204880642088804FF47A7057
:101F4000C86401461B480165416508461949886512
:101F500001461848C16501660846164948660146AB
:101F600014488166C166084612490867014611484F
:101F70004167816708460F49C86701460D48C0F8A8
:101F80008010C0F8841008460A49C1F8880001464C
:101F90000848C0F88C10C0F8901008460549C1F8F0
:101FA000940001460348C0F89810C0F89C1000F057
:101FB00011F810BD6808002010B5A0210448FFF7F3
:101FC000FBFD03480078AA2801D0FFF7AFFF10BD42
:101FD0006808002010B5A0210248FFF70FFE05F0A9
:101FE000F3FA10BD6808002010B54FF48051024884
:101FF00001F0E4FD10BD0000000C014010B54FF4ED
:102000008051024801F0D8FD10BD0000000C0140D5
:1020100000B587B00121082003F09CFA0121880354
:1020200003F088FA4FF46040ADF8040001208DF809
:10203000060018208DF8070001A91D4801F0E9FCF1
:102040004FF48050ADF8040001208DF806001020F8
:102050008DF8070001A9164801F0DBFC4FF4805110
:10206000134801F0ABFD0020ADF808004FF482707A
:10207000ADF80A000020ADF80C00ADF80E00ADF888
:1020800010004FF40070ADF812000820ADF81400F5
:102090000020ADF816000720ADF8180002A9054889
:1020A00003F076FB0121034803F058FB07B000BDA5
:1020B000000C01400038004010B5044600BF02216A
:1020C0000A4803F057FB0028F9D02146074803F0DF
:1020D0005DFB00BF0121054803F04CFB0028F9D04F
:1020E000024803F050FBC0B210BD000000380040B1
:1020F00010B51E48008800F0080020B11B49091DDA
:102100000988C8B200BF1948008800F08000F0B10B
:1021100016480C30008800F08000C0B114480178E7
:102120000078401C124A10701248405C0F49091D8B
:1021300008801046007810490978884207D10B487A
:102140000C30008820F0800008490C3108800748D6
:10215000008800F0200038B10448001D0088C4B297
:102160002046FEF7C9FF00BF10BD00000048004038
:1021700005010020061200200601002010B588B0DD
:1021800004460121880403F0D5F90121082003F059
:10219000E1F94FF48060ADF8040003208DF80600EB
:1021A00018208DF8070001A9264801F032FC4FF4F1
:1021B0000060ADF8040003208DF8060004208DF8BF
:1021C000070001A91F4801F024FC04940020ADF889
:1021D0001400ADF81600ADF81800ADF81C000C2086
:1021E000ADF81A000020ADF80800ADF80A004FF471
:1021F0000070ADF80C000020ADF80E0004A91248E4
:1022000004F06CF902A9104804F019F9012240F217
:1022100025510D4804F03DF901210B4804F020F947
:1022200027208DF8000001208DF8010000208DF896
:10223000020001208DF80300684602F05DFF08B03F
:1022400010BD0000000C01400048004070B504467D
:102250000D4600200AE0225C0C490B780978491CE5
:102260000A4E31700A49CA54411CC8B2A842F2DB76
:102270000848008800F0800030B9012240F2277140
:1022800004480C3804F005F970BD00000601002078
:10229000061200200C4800400146CAB20B1243EA65
:1022A000022070472DE9FF470646894614461D4621
:1022B000DDE90C7800200749074A3B46CDE90208D2
:1022C000CDE900212A462146304603F03BF8BDE81F
:1022D000FF870000EC0700201807002070B51A499E
:1022E000D1F89400FEF7FFF805464FF07E51FDF758
:1022F00071FF04461549FDF76DFF15490860124945
:10230000D1F89800FEF7EFF805460021FDF762FFCF
:1023100004460E49FDF75EFF0D49486000208860C5
:102320000949D1F89C00FEF7DEF805460021FDF7CB
:1023300051FF04460549FDF74DFF0549C8604FF0C0
:102340007E50086170BD0000680800206F12833A5B
:10235000180700202DE9FF4105460E461446314678
:102360001C48FDF737FF074604F11C001A491B4AB9
:10237000CDE901170092039022681146284623698F
:1023800002F0E0FF31461348FDF724FF074604F151
:1023900020001349134ACDE90117009203906268A7
:1023A00011462846636902F0CDFF31460E48FDF71D
:1023B00011FF074604F124000C490D4ACDE901172D
:1023C00000920390A26811462846A36902F0BAFF62
:1023D000BDE8FF81000048438C070020DC06002098
:1023E000AC070020F00600200000C843CC07002006
:1023F0000407002070B54A49086FFEF774F80546D7
:102400004FF08041FDF7E6FE04464649FDF7E2FE47
:10241000454908604249486FFEF765F805464FF0A8
:102420008041FDF7D7FE04463E49FDF7D3FE3E4905
:102430004860002088603A49886FFEF754F80546E6
:102440003A49FDF7C7FE04463649FDF7C3FE364953
:10245000C860374808613249C86FFEF744F805463E
:102460004FF08041FDF7B6FE04462E49FDF7B2FE5F
:10247000304908602A49D1F88000FEF734F8054653
:102480004FF08041FDF7A6FE04462649FDF7A2FE67
:1024900028494860002088602149D1F88400FEF76F
:1024A00022F805462149FDF795FE04461D49FDF732
:1024B00091FE2049C8601E4808611949D1F888007A
:1024C000FEF711F805461C49FDF784FE0446154940
:1024D000FDF780FE194908601149D1F88C00FEF71C
:1024E00002F805464FF08041FDF774FE04460D49A1
:1024F000FDF770FE11494860002088600849D1F856
:102500009000FDF7F0FF05460849FDF763FE04461D
:102510000449FDF75FFE0949C8600548086170BDC0
:10252000680800206F12833ADC0600208FC2753DD8
:102530000AD7233CF00600200000A040040700203A
:102540002DE9FF4105460E46144631461C48FDF76D
:1025500041FE074604F11C001A491B4ACDE9011748
:1025600000920390002128462369226802F0EAFEC7
:1025700031461348FDF72EFE074604F120001349AB
:10258000134ACDE9011700920390002128466369A0
:10259000626802F0D7FE31460948FDF71BFE074688
:1025A00004F124000B490C4ACDE901170092039075
:1025B00000212846A369A26802F0C4FEBDE8FF819D
:1025C0000000A0402C070020A00600204C0700209F
:1025D000B40600206C070020C806002070B54449EE
:1025E000C86CFDF780FF05464249FDF7F3FD044640
:1025F0004149FDF7EFFD414908603D49086DFDF790
:1026000072FF05463E49FDF7E5FD04463A49FDF7F0
:10261000E1FD3A4948603649486DFDF764FF0546DB
:102620003849FDF7D7FD04463349FDF7D3FD33495B
:1026300088600020C86008612D49886DFDF753FF50
:1026400005462C49FDF7C6FD04462B49FDF7C2FDA2
:102650002D4908602649C86DFDF745FF0546284904
:10266000FDF7B8FD04462449FDF7B4FD264948604E
:102670001F49086EFDF737FF05462249FDF7AAFD01
:1026800004461D49FDF7A6FD1F4988600020C8606B
:1026900008611749486EFDF726FF05461549FDF705
:1026A00099FD04461449FDF795FD18490860104945
:1026B000886EFDF718FF05461149FDF78BFD0446AE
:1026C0000D49FDF787FD114948600949C86EFDF7BE
:1026D0000AFF05460B49FDF77DFD04460649FDF757
:1026E00079FD0A4988600020C860086170BD00005B
:1026F00068080020CDCC4C3F6F12833AA006002022
:10270000CDCC4C3D0AD7233CB4060020C80600209F
:102710002DE9FF4F83B00E4614461F46F948007856
:10272000F84988708978012901D0012100E0002151
:102730000846FDF7D8FEF4490860F248007890B9E1
:1027400048684FF07E51FDF739FF07D2EE494868DF
:10275000EE49FDF7E7FCEC49486007E04FF07E509A
:10276000E949486002E00020E7494860E84800780D
:10277000401CE749087008460078032190FBF1F2FD
:1027800001FB1200E249087008460078002874D165
:1027900001F03EFADF490968A0EB01094846FDF760
:1027A000ABFE8046DC49FDF715FD0546DB49039885
:1027B000FDF710FD8046DA49FDF70CFDD9490860A8
:1027C00086F00049D5494846FDF704FD8046D449C6
:1027D000FDF700FDD349486000208860D248C06CF6
:1027E0000861D148006D4861D048C06880F0004061
:1027F0008861C548CB4A41682846FFF7A1FEC94910
:10280000C869CB49FDF7DAFE01D2C94809E0C549DC
:10281000C869C349FDF7DCFE01D2C14801E0C148E7
:10282000C069C049C861086AC149FDF7C7FE01D245
:10283000BF4809E0BB49086AB949FDF7C9FE01D2A2
:10284000B74801E0B748006AB6490862486AB94922
:10285000FDF7B4FE01D2B74809E0B249486AB6496B
:10286000FDF7B6FE01D2B44801E0AE48406AAD497A
:10287000486201F0CDF9A749086001F0C9F9AF49F4
:102880000968A0EB01094846FDF736FE8046A249DB
:10289000FDF7A0FC0546AA480168A148FDF79AFC8F
:1028A000A0490190C8690021FDF792FE02D29D481F
:1028B000C06903E09B48C06980F0004083460199ED
:1028C000FDF7BAFC80464FF07D51FDF783FC824650
:1028D0004FF07A51FDF726FC81469248C1694FF0CE
:1028E0008240FDF777FC49460290FDF773FC8F4963
:1028F0000860944801688A48FDF76CFC894901909A
:10290000086A0021FDF764FE02D28648006A03E0EF
:102910008448006A80F0004083460199FDF78CFCF2
:1029200081464FF07D51FDF755FC80464FF07A51BE
:10293000FDF7F8FB82467B48016A4FF08240FDF7C5
:1029400049FC51460290FDF745FC784948603946FC
:102950007248FDF73FFC81467B4A002104F0D4FD1C
:1029600080467A49FDF736FC704988606548807872
:1029700038BB7748C06B80F0004A084681685046F3
:10298000FDF725FC81462946FDF724FC8046674873
:10299000C1684046FDF7C6FB6449C860C8686D4918
:1029A000FDF70CFE01D26B4809E06049C8686A492E
:1029B000FDF70EFE01D2684801E05C48C0685B4943
:1029C000C860664801685C48FDF704FC5549019001
:1029D000486A0021FDF7FCFD02D25248406A03E03C
:1029E0005048406A80F0004000900199FDF724FCB7
:1029F00083464FF07D51FDF7EDFB82464FF07A5153
:102A0000FDF790FB81464748416A4FF08040FDF753
:102A1000E1FB49460290FDF7DDFB804643488168B3
:102A20004046FDF77FFB4149886008684C49FDF747
:102A3000C5FD01D24A4809E03C4908684949FDF70B
:102A4000C7FD01D2474801E03848006837490860AF
:102A500048684349FDF7B2FD01D2414809E03349D6
:102A600048684049FDF7B4FD01D23E4801E02F48D7
:102A700040682E49486088683B49FDF79FFD01D2B8
:102A8000394809E0294988683049FDF7A1FD01D29C
:102A90002E4801E025488068244988602C48406B16
:102AA00008612B48806B80F0004048612848C06B6B
:102AB00080F00040886114481C4A41682846FFF7AE
:102AC00049FC1A49C8692949FDF778FD01D2274810
:102AD00009E01649C8692649FDF77AFD01D2244864
:102AE00001E01248C0698046074908684146FDF781
:102AF00071FB0E49C861086A1C49FDF75FFD39D2B8
:102B00001A4841E04000002044000020A69B443BBE
:102B10003C00002000000020BD3786356F12033BCB
:102B200000000C42340800204C0000200C0800205B
:102B300000000CC2000034C3000034430400002035
:102B4000A0060020B4060020CDCCCC3D00004843B8
:102B5000F00A00200000C8C20000C842C8060020D9
:102B6000000096C300009643000048C300007AC4EA
:102B700000007A446249086A6249FDF729FD01D2E2
:102B8000604801E05E48006A80465F490868414647
:102B9000FDF720FB5A490862486A5C49FDF70EFDC3
:102BA00001D25A4809E05649486A5649FDF710FDD6
:102BB00001D2544801E05248406A804652490868B0
:102BC0004146FDF707FB4E49486201F021F85049A4
:102BD000086001F01DF84F490968A0EB010948465B
:102BE000FDF78AFC80464C49FDF7F4FA05460021C2
:102BF0002046FDF7EDFC0AD221464848FDF7EAFAE7
:102C000080464749FDF7E6FA4649086009E0214653
:102C10004248FDF7DFFA80464349FDF7DBFA4149B8
:102C20000860424B3F4829460268414801F04AFE8D
:102C300040492046FDF776FA3F4908603F483B4946
:102C40000968CDE9001030480168364803683A4801
:102C500002682846FFF726FB002138480068FDF788
:102C6000ADFC01D2002009E0354934480068FDF789
:102C7000AFFC01D2324801E0304800682F490860BB
:102C800000F0C6FF234908601D492E4AC8691D4946
:102C900004F029FD2C49086019492A4A086A194993
:102CA00004F021FD294908601549264A486A15495A
:102CB00004F019FD2649086020480068FDF721FC52
:102CC0000FFA80F822480068FDF71BFC0FFA80F924
:102CD0001E480068FDF715FC0FFA80FA1A480068D4
:102CE000FDF70FFC0FFA80FB4B46524659460B4846
:102CF000CDF8008004F034FB07B0BDE8F08F000091
:102D00000C08002000007A444400002000007AC42F
:102D10000400002008000020BD3786356F12033BF9
:102D200000409C451400002000803B451800002016
:102D30000000A0400000FA430C000020100000201A
:102D400000004844CDCC0C3F1C0000202000002097
:102D50002400002010B5002473E147F6FF70BF493E
:102D60000860BF48008800F00F00BE4908700846A0
:102D7000007800287ED1B9484438006800F44050FB
:102D8000B9490880B5484438006800F03000B749B8
:102D90000880B249443909684BF68F7201EA020093
:102DA00080F40050AD4944390860096848F6BF72A4
:102DB00001EA020080F02000A84944390860A848D0
:102DC000008800F01000002838D10846006848F656
:102DD0000F710840A1494439086001F0FDFC9F498A
:102DE000443909684BF68F7201EA02009E4909884E
:102DF00001F4805109B180F480509B49098801F4A5
:102E0000005109B180F400509449443908600968C0
:102E100048F6BF7201EA02009449097801F01001F6
:102E200009B180F010009149097801F0200109B141
:102E300080F0200089494439086010BD8748443833
:102E4000006884B204F08000D8B384484438006835
:102E500048F60F71084081494439086001F0BCFC14
:102E60007E49443909684BF68F7201EA02007E49B7
:102E7000098800E0A6E001F4805109B180F4805097
:102E80007949098801F4005109B180F4005073496F
:102E900044390860096848F6BF7201EA02007349C4
:102EA000097801F0100109B180F010006F4909782C
:102EB00001F0200109B180F0200068494439086020
:102EC000BBE7FFE704F40060D8B364484438006807
:102ED000C0F30E0048F68F7108406049443908601D
:102EE00002F0ECFD5D49443909684BF68F7201EA46
:102EF00002005D49098801F4805109B180F48050D5
:102F00005949098801F4005109B180F4005053492E
:102F100044390860096848F6BF7201EA0200534963
:102F2000097801F0100109B180F010004F490978CB
:102F300001F0200109B180F02000484944390860BF
:102F40007BE7FFE704F4004000287AD04348443888
:102F50000068C0F30E0048F68F7108403F494439BD
:102F6000086002F0ADF93D49443909684BF68F72AB
:102F700001EA02003C49098801F4805109B180F45A
:102F800080503949098801F4005109B180F400509A
:102F9000324944390860096848F6BF7201EA020004
:102FA0003249097801F0100109B180F010002F4971
:102FB000097801F0200109B180F020002749443947
:102FC00008603AE727480078294901EB8000D0F8EB
:102FD000000C84B204F40040C0B12248007801EB38
:102FE0008000D0F8000CC0F30E0048F68F71084046
:102FF0001C4909781E4A02EB8101C1F8000C1949ED
:103000000978491E1B4A52F82100804704F08000CD
:10301000B8B114480078164901EB8000D0F8000CD4
:1030200048F60F7108400F490978114A02EB8101F7
:10303000C1F8000C0B490978491E0F4A52F82100CB
:1030400080470648006880B20549088000F40040C7
:1030500000287FF482AE00BFEFE60000445C004031
:10306000800500204C05002060050020620500203E
:1030700000500040A0050020840500200B4A02EB10
:103080008001D1F8001C01F4804169B102EB80019C
:10309000D1F8001C48F68F72114041F48041034B77
:1030A00003EB8002C2F8001C704700000050004093
:1030B0000B4A02EB8001D1F8001C01F0400169B11C
:1030C00002EB8001D1F8001C48F68F72114041F0EC
:1030D0004001034B03EB8002C2F8001C7047000064
:1030E00000500040064A02EB8001D1F8001C48F66F
:1030F0008F621140024B03EB8002C2F8001C704744
:103100000050004070B504460025062C18D1184820
:103110000068007800F07F00012811D11448006891
:10312000407968B9124800688078222801D1114D91
:1031300010E00F480068807821280BD10E4D09E07F
:103140000B480068007800F07F00212802D1032C92
:1031500000D10A4D0DB9022070BD05480068856197
:1031600000210348006841820020A8470020F3E7BF
:1031700050050020D9310008A9310008BD310008F0
:1031800010B504460249204602F0B4FD10BD00000F
:103190002006002010B504460249204602F0AAFD90
:1031A00010BD00001806002010B504460249204654
:1031B00002F0A0FD10BD000030060020014629B934
:1031C0000120034A12681082002070470148FCE782
:1031D00050050020BC05002010B5044602492046D9
:1031E00002F088FD10BD00002806002070B50546DD
:1031F00006480068C478042C01DD002070BD044836
:1032000000EBC401284602F075FDF7E750050020E9
:10321000380600200246002901DD02207047002AFE
:1032200001DD0220FAE70020F8E7000000B50246C1
:1032300006480068007800F07F00212804D10B2A9E
:1032400002D100F077F800BD0220FCE75005002015
:1032500010B500202A490968887229490968C8728E
:103260002848C079264909684872002002F0AEFA61
:103270004FF40071002002F091FB1021002002F0B9
:103280005BFB1821002002F0CFFA5821002002F049
:1032900035FB0020FFF726FF1B4890F82C1000207C
:1032A00002F0D4FA002002F013FB4FF4C0610120B9
:1032B00002F074FB9821012002F0B6FA40210120AF
:1032C00002F0C4FA4FF44051012002F0E5FA4FF445
:1032D000C061022002F062FB4FF48C71022002F008
:1032E0000DFB4021022002F019FB2021022002F0F8
:1032F00023FB012005490860002002F06FFA10BD91
:1033000050050020BA7B0008C405002058060020A4
:1033100003480068807A10B10520024908607047B0
:10332000500500205806002004200149086070471D
:103330005806002003480068C17803480160002057
:103340007047000050050020BC0500207047704702
:1033500010B500F07FFC00200A490968887202F06D
:10336000C9F80020084908604FF43F400749088029
:10337000084600880449091F0860002004490860C5
:1033800010BD000050050020445C00405A0500209C
:10339000580600202DE9F0472848006800F1100584
:1033A0002E8826480068077AD6B9042F18D12448F9
:1033B000007801280FD100212248006880B2801CCB
:1033C000214A42F8101030202049088000BF002018
:1033D0001B49087003E0072710201C49088027E0DC
:1033E000AC88A64201D8042000E002200746B4427F
:1033F00000D93446A0B2A96888478046002000F072
:10340000F7FB8146A2B24946404603F09BFBA1B2BE
:10341000002002F083FA2888001B28806888204456
:10342000688030200949088000020949088000BFEF
:10343000024909680F72BDE8F087000050050020BE
:103440004A050020505C00400060004062050020FA
:10345000600500202DE9F0412848006800F11004C3
:103460002688A068C0B1BEB1A588B54200D935464E
:10347000A8B2A168884707462088401B2080608842
:1034800028446080002000F0A3FB8046AAB2414699
:10349000384601F0F7FF00BF208850B14FF440508C
:1034A000174908800021084602F038FA30201549F3
:1034B00008802088A188884204DB03200F4909681E
:1034C000087218E02088002804DD05200B490968EF
:1034D000087210E0208870B906200849096808724F
:1034E00000210948006880B2801C084A42F8101088
:1034F000302004490880BDE8F0810000500500201C
:103500006005002062050020505C00400060004023
:103510002DE9F84F9B48006845780027BA46062DEC
:103520001BD198480068007800F07F00002813D174
:10353000944909688878012803D193490968CF69BB
:103540000AE0022803D1904909680F6A04E00328C1
:1035500002D18D4909684F6A94E0002D64D18948F1
:103560000068408800285FD186480068C08802282B
:103570005AD1844800680079002855D181480068F4
:10358000007800F07F0028B97E480068808808B97C
:103590007E4F77E07B480068007800F07F000128CC
:1035A00010D1784909684879774909688A69002102
:1035B0009047002866D173480068807A002861D05F
:1035C000724F5FE06F480068007800F07F000228CB
:1035D00058D16C480068407900F00F0669480068CF
:1035E000407900F0700967480068407900F0800079
:1035F00038B1674901EB8600D0F8000C00F03008C4
:1036000006E0634901EB8600D0F8000C00F4405856
:1036100060480078B04235D9B9F1000F32D1B8F125
:10362000000F2FD0594F2DE0082D07D155480068C5
:10363000007800F07F0028BB574F23E00A2D21D1EE
:1036400050480068007800F07F0001281AD14D48EA
:103650000068807AB0B14B480068408890B949480A
:103660000068007970B947480068C088012809D10E
:10367000444909684879444909688A6900219047A2
:1036800000B9464F57B13F480068A0F812A03D4826
:10369000006887610020B84700240FE0394A1268AB
:1036A0005078394A1268116988470446032C05D1BD
:1036B0000920344909680872BDE8F88F314800686C
:1036C000008A4FF6FF71884204D109202D4909680C
:1036D0000872F1E7022C03D02A480068008A20B95A
:1036E0000820284909680872E6E72648006800783B
:1036F00000F08000E0B323480068C08800902148B3
:103700000068008A0099884204D91E490098096817
:10371000088223E01B480068008A1A490968C988A2
:1037200088421BDA17480068008A1749096891F82F
:103730002C10884203DA0020194908700EE0114865
:103740000068008A1049096891F82C1090FBF1F28A
:1037500001FB120010B90120114908700A480068E5
:1037600090F82C10074800688182FFF713FE07E0ED
:10377000FFE703200349096808720003094908802C
:1037800000BF99E75005002054050020455D000862
:1037900000500040C0050020C95C0008195D000809
:1037A0004A0500206005002001B502E00098401E97
:1037B000009000980028F9D108BD11B5002405E05B
:1037C0004FF47A7000F006F8601C84B200988442CE
:1037D000F6D318BD11B500F01BFA044600BF00F087
:1037E00017FA001B00998842F9D318BD70470000F2
:1037F00010B5024801F04EF810BD00000AD7A33CF6
:103800002DE9F041FDF7C8F800F002FA1849086008
:10381000184801F0BBF9174801F01CFF1649B1F92F
:103820000600FCF760FE04461349B1F90400FCF7FA
:103830005AFE05461049B1F90200FCF754FE06464F
:103840000D49B1F90000FCF74EFE074623462A4613
:103850003146FEF75DFF00F0DBF905494860084698
:1038600040680968401A02498860BDE8F08100009C
:10387000780600206F12033B9009002010B532211A
:1038800040F2DC5001F044FD10BD000010B500F026
:10389000BFF90A49C8600A4B0A4A02F118010A48EE
:1038A00000F0CEFB00F0B4F9044908610846006955
:1038B000C968401A0149486110BD0000780600201F
:1038C0004C0000200C0B0020A69BC43B10B54022EE
:1038D0009821054801F0D6FD0120044908704FF4F5
:1038E000405101F0D9FF10BDA00900207E05002045
:1038F000002004E00021034A1154411CC8B24028B2
:10390000F8DB70472413002003200149086070474A
:103910005806002030B5044604254FF4302000F04E
:1039200065F80546042D17D10C48006940F00200E7
:103930000A49086108464461006940F04000086196
:103940004FF4302000F052F805460448006941F673
:10395000FD71084001490861284630BD0020024041
:1039600004200B49C96801F0010109B101200EE0F2
:103970000749C96801F0040109B1022007E00449C0
:10398000C96801F0100109B1032000E0042070476C
:103990000020024070B504460D460426F00200F0F7
:1039A00025F80646042E11D10948006940F00100AF
:1039B000074908612580F00200F018F8064604481F
:1039C000006941F6FE71084001490861304670BD4A
:1039D000002002400248034948600348486070479D
:1039E0002301674500200240AB89EFCD00B50246B8
:1039F0000423FFF7B5FF034603E0FFF7B1FF0346DB
:103A0000521E012B01D1002AF7D102B90523184615
:103A100000BD2DE9F04102460025002600200023CC
:103A20000024002791F803C00CF00F0591F803C0A3
:103A30000CF0100CBCF1000F03D091F802C04CEA5E
:103A4000050591F800C0BCF1000F31D014680020CA
:103A50002BE04FF0010C0CFA00F3B1F800C00CEAB7
:103A600003069E4220D183004FF00F0C0CFA03F79F
:103A7000BC4305FA03FC4CEA040491F803C0BCF112
:103A8000280F06D14FF0010C0CFA00FCC2F814C04C
:103A90000AE091F803C0BCF1480F05D14FF0010CCA
:103AA0000CFA00FCC2F810C0401C0828D1D31460E6
:103AB000B1F800C0BCF1FF0F34DD546800202EE0E7
:103AC00000F1080C4FF0010808FA0CF3B1F800C03F
:103AD0000CEA03069E4221D183004FF00F0C0CFA32
:103AE00003F7BC4305FA03FC4CEA040491F803C055
:103AF000BCF1280F05D100F1080C08FA0CF8C2F847
:103B0000148091F803C0BCF1480F07D100F1080CF4
:103B10004FF0010808FA0CF8C2F81080401C082881
:103B2000CED35460BDE8F081F0B50A4600230024EE
:103B30000021002500F00046B6F1004F02D11D4ED5
:103B4000F16901E01B4E7168C0F3034583B200F4D4
:103B50004016B6F5401F08D121F07061154E766809
:103B600026F07066134F7E6012E000F48016B6F502
:103B7000801F06D1032606FA05F4A14341F07061C7
:103B800006E0460D360103FA06F6B14341F07061D6
:103B900022B1460D360103FA06F6314300F0004625
:103BA000B6F1004F02D1034EF16101E0014E7160A8
:103BB000F0BD0000000001404161704701617047A5
:103BC0004FF6FF710180022181700421C17070479E
:103BD00001460548006880B200EBC100001D034AA1
:103BE00032F8100080B27047505C00400060004026
:103BF00001460548006880B200EBC100034A32F874
:103C0000100080B270470000505C0040006000402F
:103C100000BF0E4801684FF0E02082690B48006841
:103C20008142F6D10A48006800EB4003C3EBC010A4
:103C3000C2EBC000064B1B68B0FBF3F001EB410385
:103C4000C3EBC11300EBC300704700000C01002060
:103C50000801002010B50F4B18681B1D19681B1DAB
:103C60001A68A8B10C4CA070030A2371030CA3714D
:103C7000030E2372A1720B0A23730B0CA3730B0E9A
:103C80002374A274130A2375130CA375130E2376E1
:103C900010BD0000E8F7FF1F6405002000B54020BC
:103CA0000A49086000F018F980200849086000F00F
:103CB00013F940200549091F086000F00DF9402064
:103CC0000249086000F008F900BD0000140C014032
:103CD00008B50121082001F03DFC4020ADF80000AE
:103CE00003208DF8020014208DF80300694608486F
:103CF000FFF78FFE8020ADF8000003208DF8020052
:103D000014208DF8030069460148FFF782FE08BDC4
:103D1000000C014000B540200A49086000F0DCF8C2
:103D200080200849091F086000F0D6F840200549A6
:103D3000091F086000F0D0F840200249086000F038
:103D4000CBF800BD140C014010B503460824002236
:103D500080201449086014E05006020E40201149EA
:103D6000091D086000F0B8F840200E49086000F016
:103D7000B3F80C480838006800F0800008B142F041
:103D800001022000A4F10101CCB2E5D14020054997
:103D9000091D086013B1FFF781FF01E0FFF7BAFFCB
:103DA000104610BD100C014000B5082119E040225A
:103DB000104B1A6000F090F800F0800222B18022CF
:103DC0000C4B1B1F1A6002E080220A4B1A6042064D
:103DD000100E00F081F84022064B1B1F1A6000F005
:103DE0007BF80A00A1F10103D9B2E0D14022014BD6
:103DF0001A6000BD140C014000B580201349086012
:103E00004020086000F068F810480838006808B9D9
:103E1000012000E0002000F0800008B1002000BD7B
:103E200080200A49091D086000F056F80748083844
:103E3000006800F0800008B10020F0E7802003490E
:103E4000091D086000F048F80120E8E7100C014067
:103E500000B540200A49086000F03EF8802008497B
:103E6000086000F039F840200549091F086000F09B
:103E700033F880200249091F086000F02DF800BDCA
:103E8000140C014000B5002240201249086000F0E7
:103E900023F880200F49091F086000F01DF840201A
:103EA0000C49091F086000F017F80A480C38006830
:103EB00000F0800038B1501CC2B2C82A03DDFFF701
:103EC000C7FF012000BD40200249086000F004F84F
:103ED0000020F7E7140C014000BF00BF00BF00BF87
:103EE00070470000F0B506460F4614461D46FFF722
:103EF00083FF184908707106080EFFF755FFFFF79A
:103F0000C1FF18B1FFF7A4FF0120F0BD3846FFF74D
:103F10004BFFFFF7B7FFFFF76FFF012101EB4601F2
:103F2000C8B2FFF741FFFFF7ADFF0DE0012C04D150
:103F30000020FFF709FF287003E00120FFF704FFCE
:103F400028706D1C601EC4B2002CEFD1FFF780FFFB
:103F50000020DAE71001002070B504460D46164631
:103F6000FFF74AFF6106080EFFF71EFFFFF78AFF03
:103F700018B1FFF76DFF012070BD2846FFF714FF51
:103F8000FFF780FF3046FFF70FFFFFF77BFFFFF7DC
:103F90005FFF0020F0E7F8B506460F4614461D46C1
:103FA0006B46012239463046FFF79CFF2DB10120B8
:103FB000A0409DF80010084305E00120A0409DF8B6
:103FC000001021EA0000C0B200909DF800203946A0
:103FD0003046FFF7C1FFF8BD2DE9F8430746884694
:103FE00014461D46089E6B46012241463846FFF79F
:103FF00079FF601CFF2101FA00F0C4F10801294497
:10400000491EFF220A41104300F0FF09C5F10800D4
:1040100006FA00F0C6B2C4F1070006419DF80000A0
:1040200000EA090000909DF80000304300909DF8E0
:10403000002041463846FFF78FFFBDE8F8830000B7
:104040000FB5A5B0FE482390002022902898006864
:10405000189028984068179028988068169028989B
:10406000C0681590DDE91710FCF7B4F82190169997
:104070001898FCF7AFF8209017990846FCF7AAF8B3
:104080001F9015991798FCF7A5F81E9016990846E9
:10409000FCF7A0F81D90DDE91510FCF79BF81C90CB
:1040A00015990846FCF796F81B90DDE91610FCF709
:1040B00091F81A9015991898FCF78CF81990279890
:1040C000806806902798806805900699FCF782F82A
:1040D00008902798406804902798406803900499B6
:1040E000FCF778F8069027980068049027980068F5
:1040F00003900499FCF76EF805900699FCF712F806
:1041000007900899FCF70EF8099003F021FA149033
:104110002798006809901499FCF78EF8109027985A
:10412000406809901499FCF787F8119027988068E7
:1041300009901499FCF780F812904FF080401B9979
:10414000FCF748F808904FF080401D99FCF742F8C2
:1041500007900899FBF7E6FF4FF07E510990FCF7B6
:1041600036F8289908614FF080401999FCF732F829
:1041700009904FF080401A99FCF72CF808900999A3
:10418000FCF722F80146289841614FF080402099C1
:10419000FCF720F809904FF080401E99FCF71AF8C0
:1041A00008900999FBF7BEFF0146289881614FF0FE
:1041B00080401999FCF70EF809904FF080401A9949
:1041C000FCF708F808900999FBF7ACFF2899C8613B
:1041D0004FF080401B99FBF7FDFF08904FF08040A7
:1041E0001F99FBF7F7FF07900899FBF79BFF4FF02C
:1041F0007E510990FBF7EBFF0146289801624FF0D2
:1042000080402199FBF7E6FF09904FF080401C9910
:10421000FBF7E0FF08900999FBF7D6FF01462898C5
:1042200041624FF080402099FBF7D4FF09904FF096
:1042300080401E99FBF7CEFF08900999FBF7C4FF59
:10424000289988624FF080402199FBF7C3FF0990BD
:104250004FF080401C99FBF7BDFF08900999FBF7D0
:1042600061FF01462898C1624FF080401D99FBF71D
:10427000B1FF08904FF080401F99FBF7ABFF07900C
:104280000899FBF74FFF4FF07E510990FBF79FFF16
:104290000146289801632898806A01460890694879
:1042A000FBF798FF09902798006801460890099845
:1042B000FBF78DFF289948632898C06A014608904B
:1042C0006048FBF787FF09902798406801460890EF
:1042D0000998FBF77CFF0146289881632898006BBA
:1042E000014608905748FBF775FF099027988068AA
:1042F000014608900998FBF76AFF01462898C163B8
:10430000129807902898C06A06900799FBF762FFF9
:1043100009902898006B0790119806900799FBF771
:1043200059FF08900999FBF74FFF0D9012980790DD
:104330002898806A06900799FBF74CFF0990289807
:10434000006B0790109806900799FBF743FF0890C1
:104350000999FBF739FF80F000400E9000200F9084
:104360000D980346384A39490990259802F084FF90
:104370000E980346364A35490990259802F07CFF8D
:104380000F980346334A31490990259802F074FF8B
:104390002D484068014607902598FBF71BFF0890C1
:1043A0002299FBF717FF09902B48006801460890F7
:1043B0000998FBF7B7FE2849086025484068014680
:1043C00007902598FBF706FF08902299FBF702FF5C
:1043D000099021484068014608900998FBF7A2FE21
:1043E0001D4948601B484068014607902598FBF727
:1043F000F1FE08902299FBF7EDFE099016488068BF
:10440000014608900998FBF78DFE1349886008461D
:10441000006804900C48406803900499FBF782FE02
:1044200005902399FBF7D6FE0790269800680B4964
:104430000590FBF7CFFE06900799FBF773FE0FE0A0
:104440009A99193F00201946A4000020CDCC4C3E7B
:10445000AC000020B40000205C08002035FA8E3C3F
:1044600008902599FBF7B6FE4FF080410990FBF7C5
:10447000E3FE0A90D24840680490D2484068039016
:104480000499FBF74FFE05902399FBF7A3FE0790D5
:1044900026984068CC490590FBF79CFE069007994A
:1044A000FBF740FE08902599FBF794FE4FF0804102
:1044B0000990FBF7C1FE0B90C14880680490C34887
:1044C000406803900499FBF72DFE05902399FBF7B4
:1044D00081FE079026988068BB490590FBF77AFE1D
:1044E00006900799FBF71EFE08902599FBF772FED0
:1044F0004FF080410990FBF79FFE0C900C9801460D
:1045000007901598FBF766FE09900B9801460590F9
:104510001698FBF75FFE07900A98014604901798DB
:10452000FBF758FE05901899FBF751FE0690079986
:10453000FBF74AFE08900999FBF746FE28990860A8
:104540000B98014607901598FBF744FE09900C98CC
:10455000014605901698FBF73DFE07900A98014624
:1045600004901898FBF736FE05901799FBF7DAFDD3
:1045700006900799FBF7D6FD08900999FBF724FEF2
:10458000289948600A98014607901598FBF722FE83
:1045900009900C98014604901798FBF71BFE0690B3
:1045A0000B98014604901898FBF714FE05900699A5
:1045B000FBF70AFE07901699FBF7B4FD08900999DE
:1045C000FBF7B0FD289988600A9801460690169876
:1045D000FBF700FE08900B98014604901798FBF734
:1045E000F9FD06900C98014604901898FBF7F2FD2F
:1045F00005900699FBF796FD07900899FBF7E4FDF7
:1046000009901599FBF78EFD2899C8602898C06815
:1046100006902898C06805900699FBF7DBFD089086
:104620002898806804902898806803900499FBF784
:10463000D1FD069028984068029028984068019023
:104640000299FBF7C7FD049028980068029028980B
:10465000006801900299FBF7BDFD03900499FBF7F8
:1046600061FD05900699FBF75DFD07900899FBF742
:1046700059FD099002F06CFF13902898006809908A
:104680001399FBF7D9FD289908602898406809908C
:104690001399FBF7D1FD2899486028988068099004
:1046A0001399FBF7C9FD289988602898C06809907C
:1046B0001399FBF7C1FD2899C8604FF080402099FD
:1046C000FBF788FD02904FF080401E99FBF782FDBA
:1046D00001900299FBF778FD0390FBF73FFFCDE9CE
:1046E000040102F0DBFA4FF0C042394BCDE906017C
:1046F000FBF787FECDE90801FBF743FF2899086522
:104700004FF080401D99FBF765FD05904FF040404C
:104710001F99FBF75FFD04900599FBF755FD4FF0DE
:104720007E510690FBF7FEFC08904FF080402199E7
:10473000FBF750FD06904FF080401C99FBF74AFDB7
:1047400005900699FBF7EEFC0790089902F01EFC15
:1047500020490990FBF73EFD2899C8644FF080403E
:104760001B99FBF737FD05904FF040401D99FBF773
:1047700031FD04900599FBF727FD4FF07E5106901F
:10478000FBF7D0FC08904FF080401999FBF722FD11
:1047900006904FF080401A99FBF71CFD0590069992
:1047A000FBF7C0FC0790089902F0F0FB80F0004096
:1047B00008490990FBF70EFD2899486529B000BD0E
:1047C0005C080020AC00002035FA8E3CB4000020CC
:1047D00066A64C403333654210B518480068047A29
:1047E000022C01D0042C05D1FEF7D4FD134800683B
:1047F000047A1CE0062C19D110480068407805287E
:104800000ED10E480068007800F07F0040B90B49D7
:104810000968C87800F0E2FF09490968086A80471A
:104820000849096888688047082400E0082403498B
:1048300009680C7200F03AFE10BD0000500500201F
:104840005C0500205405002010B50F480088FBF7D8
:1048500053FE04460D4801682046FBF7AFFE02D226
:10486000FDF708FA01E0FDF7FDF907480088401C54
:1048700080B20549088006490988884202DB002089
:104880000149088010BD0000E0000020DC0000208D
:10489000D800002038B504460948007828B940F20D
:1048A000DC51204602F028FC08E04FF4FA70642343
:1048B0001A4602210090204602F088FC38BD000014
:1048C000CC0000202DE9FE4F06460F4615461C463B
:1048D00028462168FBF778FC124902903046FBF726
:1048E00079FC39460090FBF775FC014601904FF0CA
:1048F0007E50FBF7A1FC83464FF07E51FBF712FC84
:10490000824651464FF07E50FBF796FC8146029955
:10491000FBF760FC80462168FBF704FC2060BDE8E3
:10492000FE8F0000C3F5C8400548817A19B1052102
:10493000044A116002E00121024A11607047000040
:10494000081300205806002010B51748008A401CA4
:10495000154908820846C088401C00B2C880084635
:104960000089401C00B2088108464089401C00B202
:10497000488108468089401C00B288810846C08969
:10498000401C00B2C88108460078022804DB0846B3
:104990004088401C488004E003480078401C0249DD
:1049A0000870FFF751FF10BD6406002010B5704875
:1049B000007801286DD16F480088401C6D4908803F
:1049C0006D4800686A49B1F9041008446A490860F2
:1049D000084641686648B0F90600084466494860E0
:1049E000084681686248B0F9080008446249886056
:1049F000084680695E49B1F9481008445E498861FB
:104A00005C480088322844DB08460068322190FB6D
:104A1000F1F42046FBF767FD5849C1F807005648F6
:104A20004068322190FBF1F42046FBF75CFD5349CE
:104A3000C1F80B0050488068322190FBF1F4204609
:104A4000FBF751FD4D49C1F80F000B46D3F80F207D
:104A5000D3F80B10D3F8070002F012FD4648806926
:104A6000322190FBF1F42046FBF73DFD43490863FA
:104A70000020404908803E490870012040490870E4
:104A80004870FDF7A7FA00203B49886188604860BC
:104A9000086037484078002869D03A480088401CB0
:104AA00038490880344800693149B1F90A1008448E
:104AB000314908610846C1682D48B0F90C00084426
:104AC0002D49C860084641692948B0F90E000844DC
:104AD00029494861084680692549B1F948100844C8
:104AE0002549886127480088322840DB0869FBF7A0
:104AF000FAFC04462449FBF79FFB2049C1F8130048
:104B00001D49C868FBF7EFFC04461F49FBF794FBFF
:104B10001A49C1F8170018494869FBF7E4FC044634
:104B20001949FBF789FB1549C1F81B001248806938
:104B3000322190FBF1F42046FBF7D5FC0F49C86207
:104B40000020104908800A484078012801D1FDF76B
:104B500041FA0020064948700220094908700120E6
:104B600048700020044988614861C860086110BD30
:104B7000F00A0020EE000020400B00206808002012
:104B800008090020F0000020000048422DE9F04113
:104B90008AB0804600F044FAFFF708FFCE4840781C
:104BA000CD49097840EA012000B2CC498880CA4842
:104BB000C078C949897840EA012001B2C748C1805C
:104BC000C5484079C449097940EA012001B2C34887
:104BD0000181C148407AC049097A40EA012000B207
:104BE000BE494881BC48C07ABB49897A40EA012065
:104BF00001B2BA488181B848407BB749097B40EA95
:104C0000012001B2B548C181B348C079B249897960
:104C100040EA012000B2B149A1F84800B1F94800CA
:104C2000FBF761FC0546AE49FBF706FB0446AD49C0
:104C3000FBF778FAA949C864AB48807958BBB1F949
:104C40000400FBF750FC0446A748D0F807102046A4
:104C5000FBF7BAFA0490A149B1F90600FBF743FC4F
:104C60000446A148D0F80B102046FBF7ADFA05909A
:104C70009A49B1F90800FBF736FC05469A48D0F886
:104C80000F102846FBF7A0FA04464FF08B41FBF7C4
:104C900049FA069042E09448807901283BD18F4937
:104CA000B1F90400FBF71FFC05468F48D0F8071048
:104CB0002846FBF789FA04464FF08041FBF78AFA51
:104CC00004908649B1F90600FBF70DFC05468648BD
:104CD000D0F80B102846FBF777FA04464FF08041D6
:104CE000FBF778FA05907D49B1F90800FBF7FBFB6B
:104CF00006467D48D0F80F103046FBF765FA0546AA
:104D00004FF08A41FBF70EFA04464FF08041FBF763
:104D100061FA069002E00120704908706F49B1F90C
:104D20000A00FBF7E0FB04466F48D0F8131020465A
:104D3000FBF74AFA08906949B1F90C00FBF7D3FB7D
:104D400004466948D0F817102046FBF73DFA079053
:104D50006249B1F90E00FBF7C6FB04466248D0F881
:104D60001B102046FBF730FA09900498FBF7C9FBAB
:104D7000044628235D4A194600905D4802F035FD3F
:104D80000598FBF7BEFB044628235A4A19460090B3
:104D9000594802F02AFD0698FBF7B3FB0446282386
:104DA000564A19460090564802F01FFD0898FBF736
:104DB000A8FB04460523534A19460090524802F0C6
:104DC00014FD0798FBF79DFB044605234F4A19463F
:104DD00000904F4802F009FD0998FBF792FB04464A
:104DE00005234C4A194600904B4802F0FEFC43490B
:104DF0008868FBF778FB04463E498868FBF773FB3D
:104E000005463A498868FBF76EFB0646334818307A
:104E1000011F0A1F2346CDE9002102902A46314690
:104E2000012002F098FC3B498868FBF75CFB0446D4
:104E300036498868FBF757FB054632498868FBF717
:104E400052FB064625483030011F0A1F2346CDE994
:104E5000002102902A463146012002F07CFC1F49C5
:104E6000886A2E49FBF7B6F91C494863C86A2B4982
:104E7000FBF7B0F919498863086B2849FBF7AAF9D1
:104E80001649C8630869FBF769FB0646244A254BA7
:104E9000FBF7B7FA0446FBF774FB1049C861486991
:104EA000FBF75CFB06461E4A1E4BFBF7AAFA0446BC
:104EB000FBF767FB094908628869FBF74FFB064669
:104EC000174A184BFBF79DFA0446FBF75AFB0349B8
:104ED00048620AB0BDE8F081E00A0020F00A002034
:104EE0000000AA430000124268080020740B002052
:104EF000EC0B0020880B00208C0C00209C0B002069
:104F00002C0D0020B00B0020CC0D0020C40B002085
:104F1000E00D0020D80B0020F40D0020FD007A3DAC
:104F2000325A4755132403407047000070B50446B9
:104F30000125FFF7F9FF2A2C15D006DC052C0CD033
:104F40000A2C0CD0142C16D10BE0622C0DD0BC2CEA
:104F50000DD0B4F5807F0ED10BE006250DE00525C0
:104F60000BE0042509E0032507E0022505E0012503
:104F700003E0002501E0042500BF00BFFEF7A8FE06
:104F80000A20FEF71AFC80226B216820FEF7E4FF5E
:104F90000A20FEF712FC00226B216820FEF7DCFFDE
:104FA0000A20FEF70AFC002000F08EF80A20FEF727
:104FB00004FC032000F03EF80A20FEF7FEFB40F25E
:104FC0004D1000F08AF80A20FEF7F7FB032000F0EE
:104FD00057F80A20FEF7F1FB022000F03FF80A2004
:104FE000FEF7EBFBE8B200F02FF80A20FEF7E5FB36
:104FF000002000F060F80A20FEF7DFFB012000F03F
:1050000051F80A20FEF7D9FB044B012275216820D4
:10501000FEF768FF0A20FEF7D0FB70BDEA00002013
:1050200010B5034B0E223B216820FEF75BFF10BD3D
:10503000E00A002038B50446032302226B216820D1
:105040000094FEF7C9FF38BD38B504460323022299
:105050001A2168200094FEF7BFFF38BD38B504461A
:10506000022304221C2168200094FEF7B5FF0020D3
:10507000032307221C2100906820FEF7ADFF38BDF6
:1050800038B50446022304221B2168200094FEF751
:10509000A3FF0020032307221B2100906820FEF7B6
:1050A0009BFF38BD10B504462346012237216820F6
:1050B000FEF771FF10BD10B50446234605226A2194
:1050C0006820FEF768FF10BD10B50446234606228F
:1050D0006B216820FEF75FFF10BD70B504464FF4EA
:1050E0007A7090FBF4F0401EC5B22A461921682060
:1050F000FEF732FF70BD704770B5002100230F220C
:10510000C47804B3154C246804F4E064C4F5E06486
:10511000210AC1F10403CA40447804FA03F18478F7
:105120001440214309010E4C0678A155047804F07F
:105130001F050124AC4005786D11AD0005F1E02597
:10514000C5F8004109E0047804F01F050124AC40D3
:10515000044D0678761145F8264070BD0CED00E050
:1051600000E400E080E100E002490143024A1160EE
:10517000704700000000FA050CED00E070B5022653
:105180004A480068447849480068007800F07F0089
:1051900000284AD1092C03D100F04CFE064665E0F8
:1051A000052C14D141480068C0787F280BDC3F48AB
:1051B0000068807838B93D480068808818B93B4855
:1051C0000068807A08B108256BE000264EE0032CC9
:1051D00014D136480068C07801280DD133480068E2
:1051E000808848B931480068407A00F0200018B142
:1051F00000F044FE064639E0022637E0012C35D1A6
:105200002A480068C07801280DD1284800688088A5
:1052100048B926480068407A00F0200018B100F034
:10522000A5FC064622E0022620E02048006800781F
:1052300000F07F00012805D10B2C17D100F092FE61
:10524000064613E019480068007800F07F00022845
:105250000BD1012C03D100F089FC064606E0032C9B
:1052600004D100F01FFE064600E002264EB1E0B277
:105270000F4A1268516988470646032E01D1092555
:105280000FE00EB108250CE0062500210948006852
:1052900080B2801C084A42F810103020074908806C
:1052A00000BF024909680D7270BD00005005002062
:1052B00054050020505C0040006000406205002062
:1052C00010B511480068047A032C01D0052C05D1D3
:1052D000FEF7C0F80C480068047A0EE0072C05D1F0
:1052E0000A490968C8688047082406E0022C01D0F2
:1052F000042C01D1082400E00824034909680C7239
:1053000000F0D4F810BD0000500500205405002026
:1053100070B504460D460A48008820B10848008848
:10532000401C0749088094FBF5F00549098888422C
:1053300004DCFCF74FFE00200149088070BD00002E
:10534000BC0000202DE9FF4F8FB0824693461E46D9
:10535000DDE91D491C9D31465846FAF735FF0746E1
:105360002968FAF737FF206051464FF07E5002F06F
:10537000ABF90D9061682068FAF726FF8046A968AE
:10538000FAF728FF07460D99FAF724FF20615146E6
:105390004FF07E5002F098F90D90A1683046FAF770
:1053A00013FF0C90E86880F0004840460C99FAF72B
:1053B00011FF07460D99FAF70DFFE0605046FBF725
:1053C000CDF8CDE90601E068FBF7C8F807460022F2
:1053D0002B4BFBF716F8CDE9020121686868FAF754
:1053E000F9FE0746FBF7BAF8CDE90001DDE9022333
:1053F000FAF760FFCDE90401DDE90623FBF701F8C8
:10540000CDE90A016069FBF7A9F8CDE90801DDE9FA
:105410000A23FAF74FFFCDE90C01FBF7B2F8606100
:1054200089F0004761693846FBF7D2F802D289F06B
:10543000004007E060694946FBF7CAF801D24846D8
:1054400000E06069606128691099FAF7C3FE0C906A
:105450002168FAF767FE0D902169FAF763FE80462E
:10546000E168FAF75FFE07466169FAF75BFE1F998C
:105470000860A6602068606013B0BDE8F08F00008F
:105480000000F03FF0B5561C7510074E06EB4104C6
:105490002B4605E034F8047B20F8017B401C5B1EA2
:1054A000002BF7D1F0BD00000060004010B50D48A2
:1054B00090F82C10002000F0C9F90B480068007A21
:1054C000082805D1400209490880102008490880B1
:1054D00005480068007A092801D1012010BD00208C
:1054E000FCE70000C40500205005002060050020F6
:1054F0006205002010B5012001F061F801240B487D
:10550000046000200A4908800846008807490860AE
:105510000020091D08604FF4E05005490880084646
:10552000008802490860002010BD0000405C004077
:105530005A05002029B1064AD2690243044BDA61B8
:1055400004E0034AD2698243014BDA6170470000EC
:105550000010024029B1064A92690243044B9A6145
:1055600004E0034A92698243014B9A61704700004C
:105570000010024030B500210022002400232D4DF0
:105580006D6805F00C0121B1042905D0082923D14B
:1055900005E0294D056022E0274D05601FE0254DFF
:1055A0006D6805F47012234D6D6805F48034022592
:1055B00005EB92421CB9214D554305600BE01D4D92
:1055C0006D6805F400351DB11C4D5543056002E0C2
:1055D000194D5543056002E0174D056000BF00BF3F
:1055E000144D6D6805F0F0010909154D6B5C0568F7
:1055F000DD4045600F4D6D6805F4E061090A104D0E
:105600006B5C4568DD4085600A4D6D6805F460514E
:10561000C90A0B4D6B5C4568DD40C560054D6D6882
:1056200005F44041890B074D6B5CC568B5FBF3F58C
:10563000056130BD0010024000127A0000093D00F3
:10564000340500204405002001490860704700002F
:10565000D800424200B5034600220AE0084830F86C
:105660001200A0F2DC5000B2064921F81200501CD2
:10567000C2B2082AF2DB02F029FA01F06BFC00BD8D
:10568000800900209009002070B50546072D01D043
:105690002748057026480078082841D2DFE800F046
:1056A000040A1016212E414200F046F80620204937
:1056B00008703BE000F040F804201D49087035E018
:1056C00002201B494870032008702FE018484078DA
:1056D000401E174948700846407808B904200870F1
:1056E00024E01448006884B244F0100411480460B7
:1056F00005200F4908700A20487017E00C484078D0
:10570000401E0B4948700846407840B90948006877
:1057100084B224F01004074804600620087005E0F5
:1057200000BF00BF06200249087000BF00BF70BD67
:105730005D060020405C004010B50748006884B258
:1057400024F0040404480460FFF7EEF84FF43F40EF
:105750000149086010BD0000405C004021B1028892
:1057600042F04002028004E002884FF6BF731A4004
:10577000028070470246002013890B400BB10120C4
:1057800000E000207047014688897047818170479A
:1057900010B50022028802F441520B884C88234342
:1057A0008C882343CC8823430C8923434C8923438F
:1057B0008C892343CC8923431A430280838B4FF285
:1057C000FF74234083830B8A038210BD4FF6F87168
:1057D0000140014A11607047505C004030B50146FD
:1057E0000E4B1A78002011E003060D4C04EB935386
:1057F000D3F8003C48F68F742340C4B22343040618
:10580000074D05EB9454C4F8003C401C9042EBD388
:1058100041F08003034C236030BD0000C005002030
:10582000005000404C5C004010B54A105300054A3F
:10583000126892B202EBC002121D034C44F81230FF
:1058400010BD0000505C00400060004010B50246F2
:105850000F48006880B200EBC200801D0D4C04EBC5
:1058600040033E290BDD481101F01F040CB9441E12
:10587000A0B24FF4004444EA80241C6007E04810C2
:1058800001F001040CB1441CA0B284021C6010BDE4
:10589000505C00400060004010B50C4C04EB8003ED
:1058A000D3F8003C4BF68F7403EA040201F48053F2
:1058B0000BB182F4805201F400530BB182F4005218
:1058C000024C04EB8003C3F8002C10BD00500040D4
:1058D000094B03EB8002D2F8002C4BF68F7302EADF
:1058E000030181F4805181F40051034B03EB8002EA
:1058F000C2F8001C704700000050004010B54A106C
:105900005200044B1B689BB203EBC003024C44F8EB
:10591000132010BD505C004000600040044A126833
:1059200092B202EBC002921C024B43F81210704775
:10593000505C00400060004010B50C4C04EB80034C
:10594000D3F8003C48F6BF7403EA040201F01003E8
:105950000BB182F0100201F020030BB182F02002A3
:10596000024C04EB8003C3F8002C10BD0050004033
:10597000094B03EB8002D2F8002C48F6BF7302EA11
:10598000030181F0100181F02001034B03EB800241
:10599000C2F8001C704700000050004010B5074BD3
:1059A00003EB8002D2F8002C48F68F131A400A430A
:1059B000024C04EB8003C3F8002C10BD00500040E3
:1059C00010B500F001F810BD0CB50020019000905A
:1059D0003348006840F480303149086000BF3048E7
:1059E000006800F4003000900198401C019000987D
:1059F00018B90198B0F5A06FF1D12948006800F4FA
:105A0000003010B10120009001E0002000900098CB
:105A1000012843D12348006840F010002149086064
:105A20000846006820F0030008600846006840F05F
:105A3000020008601A4840681949486008464068F2
:105A400048600846406840F4806048600846406806
:105A500020F47C1048600846406840F4E810486034
:105A60000846006840F08070086000BF0C4800687D
:105A700000F000700028F9D00948406820F00300C9
:105A8000074948600846406840F00200486000BF8F
:105A90000348406800F00C000828F9D10CBD000054
:105AA000001002400020024010B50020FFF7CCFD9E
:105AB0000121C805FFF73EFD10BD000008B52848CC
:105AC000006880B2001D274931F8100080B201EB58
:105AD0004000009024480068007A09282FD00098E0
