:020000040800F2
:1000000080090020450100087D130008D91200086E
:10001000791300081D110008832200080000000069
:100020000000000000000000000000003919000876
:10003000B911000800000000A11600085D010008C9
:100040005F0100085F0100085F0100085F01000810
:100050005F0100085F0100085F0100085F01000800
:100060005F0100085F0100085F0100085F010008F0
:100070005F0100085F0100085F0100085F010008E0
:100080005F0100085F0100085F0100085F010008D0
:100090005F0100085F0100085F0100085F010008C0
:1000A0005F0100085F0100085F0100085F010008B0
:1000B0005F0100085F010008611B00085F01000884
:1000C0005F0100085F0100085F0100085F01000890
:1000D0005F010008B11F0008392000085F01000817
:1000E0005F0100085F0100085F0100085F01000870
:1000F0005F0100085F0100085F0100085F01000860
:100100005F0100085F0100085F0100085F0100084F
:100110005F0100085F0100085F0100085F0100083F
:100120005F0100085F0100085F0100085F0100082F
:10013000DFF80CD000F020FE00480047052600083C
:10014000800900200648804706480047FEE7FEE792
:10015000FEE7FEE7FEE7FEE7FEE7FEE7FEE7FEE777
:10016000251A00083101000840EA01039B0703D06B
:1001700009E008C9121F08C0042AFAD203E011F8E6
:10018000013B00F8013B521EF9D270470FB400B595
:100190008DB010A909900B9000914FF0FF300A909C
:1001A00000200C9005480690054807906A4609A86B
:1001B0000F9900F013FD0DB05DF814FBF90B00086A
:1001C000170C00082DE9FF5F1D464FF0FF3BD5E9F6
:1001D000014691465F464FF00008A9697F1C0198CF
:1001E0008847296A824688470028F6D1BAF1FF3F3E
:1001F0000CD024F4C064002E19DD600614D5BAF1C9
:100200002B0F09D0BAF12D0F0ED103E0584604B0E0
:10021000BDE8F09F44F48064A9697F1C0198884779
:10022000761E8246002E02DDBAF1300F03D0B9F1FE
:10023000000F26D032E0A969761E44F400747F1CBA
:10024000019888478246002E05DDBAF1780F06D066
:10025000BAF1580F03D0B9F1000F10D01EE0B9F178
:10026000000F02D0B9F1100F18D1A969761E24F43D
:1002700000747F1C019888478246102002E0082005
:1002800000E00A20814609E008FB0908A969761EFA
:1002900044F400747F1C019888478246002E05DDD7
:1002A0004946504600F085FC0028EDDAE9690198DE
:1002B0008847A00502D46FF00100A8E7E00725D128
:1002C000600613D5600502D5C8F1000000E0404685
:1002D00029680A1D2A600968220501D5087015E001
:1002E000220701D5088011E008600FE02868011D91
:1002F00029600068210502D580F8008006E021070A
:1003000002D5A0F8008001E0C0F8008038467EE702
:100310002DE9FF4F087881B09946FF2805D0491C88
:100320002D2804D00024002308E000230BE0012442
:10033000F9E703EB830300EB4303491C0878FF282C
:10034000F7D104B15B4200200090147801462D2CB7
:1003500001D02B2C04D1521C2D2C12D0002400943F
:1003600000251678FF2E0ED00A24A0FB04C801FB3E
:100370000481002700FB0711521C16EB0C00694199
:10038000EFE70124EBE7994450EA01020ED0002484
:10039000AA4D2646DFF8A88200F0E2FC82468B4692
:1003A000B9F1000009DAC9F100071BE0019800214A
:1003B000C0E9001105B0BDE8F08F074612E0F8076C
:1003C00007D022462B463046414600F06EFA0646DC
:1003D000884622462B461046194600F066FA044627
:1003E0000D467F10002FEAD1B9F1000F3246434687
:1003F0005046594602DA00F0CAFA01E000F055FA18
:10040000009A0AB181F00041019AC2E90001D1E7E6
:100410002DE9FF4F1F468DB0D7E901464FF0FF3859
:100420002E2045464FF000090B90B9696D1C0E98BF
:100430008847396A824688470028F6D1BAF1FF3FDB
:100440000AD024F4D064002E11DDBAF12B0F08D0AD
:10045000BAF12D0F0BD102E0404611B0ABE744F4E6
:100460008064B9696D1C0E9888478246761E69467D
:10047000600501D52D2000E02B208DF8000001F152
:10048000010B0DF1200809E0B9696D1C0E98884731
:1004900082460F9844F40074761E0560002E02DD3B
:1004A000BAF1300FF0D00B998A453ED144F0800468
:1004B00006E00F99681CA9F1010944F40074086072
:1004C000B9696D1C761E0E98884782463028F0D098
:1004D0002BE00B998A4505D1200603D444F0800413
:1004E000761E18E0504601F0DDFE08B30DF1130151
:1004F000761E44F400748B4508D2AAF130000BF844
:10050000010B200607D5A9F1010003E0200602D463
:1005100009F101008146A00502D50F99681C086009
:10052000B9696D1C0E9888478246002ED1DC53E0D5
:10053000002E51DDBAF1650F02D0BAF1450F4BD153
:10054000A00549D5B9696D1C24F44074761E0E9837
:1005500088478246002E0CDD2B2804D0BAF12D0FDF
:1005600007D144F48074B9696D1C0E98884782469F
:10057000761EE00501D52D2100E02B2108F8011B96
:10058000CDF82C8021E00DF12901761E44F4007491
:1005900088450CD2AAF1300010F0FF0088F8000066
:1005A00002D10B99884509D908F1010806E0E00558
:1005B00001D5244801E042F20F708146B9696D1CF3
:1005C0000E98884782460F980560002E04DD50463D
:1005D00001F068FE0028D6D1F9690E988847FF20FF
:1005E0008BF8000088F800000020069007904B462A
:1005F0006A4608A906A8FFF78BFEA00502D46FF093
:1006000001002AE714F0240F0AD0E00714D1DDE935
:1006100006123868031D3B600068C0E900120BE059
:10062000DDE9060100F073FA0146E00704D13868FD
:10063000021D3A600068016028460EE70000244071
:100640000000F03FF1D8FFFFF0B480EA0102D40FC0
:100650004200B2EB410F02D20246084611464A0060
:1006600042D0C30DDDB2C1F3C752AD1A202D35DA29
:10067000C1F3160141F4000204B15242C5F1200653
:1006800002FA06F12A411044B3EBD05F23D0C4B183
:10069000012DA0EBC35009DCF0BC4FF0004202EA90
:1006A000C352DBB200F5000000F0CFBA400000F109
:1006B000807000EBC350A0F1807040EAD170490017
:1006C00009E0490841EAC071A0EBC35000F5000001
:1006D000400800EBC350F0BC00F0AEBA614201220A
:1006E00002EB4101001BF6E7F0BC704781F00041CE
:1006F000AAE780F00040A7E780EA010210B502F007
:100700000043400022D04A001FD0010E01EB1261CD
:10071000C0F35600C2F3560240F4000042F4000257
:10072000A0FB022000047F39140400D0401C50EAD2
:10073000124001D44000491EC2B20C0604EBD01096
:10074000401C4008802A02D003E0002010BD20F0A9
:100750000100002900DA0020184310BD2DE9FE4FEA
:10076000804681EA0300C00F0C46009021F0004152
:1007700023F00045B8EB0200A94105D240462146CE
:1007800090461C460B46024623F00040104347D0DB
:10079000270DC7F30A00C3F30A510290401A0190D3
:1007A00040286BDAC3F3130040F4801B0098924694
:1007B00020B10023D2EB030A63EB0B0B01985946DF
:1007C000C0F14002504600F0D3F906460D465046AF
:1007D0005946019A00F0DBF910EB08006141002452
:1007E00087EA115284EAE7731A4340D0009A62B351
:1007F000019A012A4FEA075215DC001B61EB020146
:100800004FF0004202EA0752CDE90042001C41F5D8
:10081000801132462B4600F055FA03B0BDE8F08F48
:1008200040462146F9E7001B61EB0201001C41F53F
:10083000801300185B412018A2F5001747EB030155
:1008400040EAD570B6196D4111E06D084FEA3606E1
:1008500045EAC0754FEA0752001B61EB0201001C1C
:1008600041F5801149084FEA3000001951413246E4
:100870002B4603B0BDE8F04F00F015BA00980122F6
:1008800040000023D0EB020263EBE07300982146A6
:100890004FEAE074B8EB000061EB0401E9E783F094
:1008A00000435BE781F0004158E72DE9FE4F81EA04
:1008B000030404F0004421F0004100944FF0000BC9
:1008C00023F0004350EA01045ED052EA03045BD0F7
:1008D000C3F30A54C1F30A552C44A4F2F33401942F
:1008E000A0FB0254C1F3130141F48011C3F31303BD
:1008F00043F4801301FB024400FB034E840A970A71
:1009000044EA815447EA8357A4FB076802958D0A9D
:1009100005FB07854FEA932C04FB0C542705029D29
:100920004FEA065847EA1637B5EB08056EEB070C99
:10093000870E920E47EA811742EA8312A7FB020153
:10094000B6EB0B0164EB00042B0D43EA0C335E188D
:1009500044EB1C50DA465146E7FB0201C5F3130491
:100960004FEA0B3343EA14534FEA0432019C43EA43
:100970000603A4F10C040294009CCDE900B400F03D
:10098000A1F903B0BDE8F08F00200146F9E72DE999
:10099000F04D81EA030404F0004B21F000451446B9
:1009A0004FF0000A23F0004150EA050220D054EA3B
:1009B00001021DD0C5F30A570246C5F31303C1F364
:1009C0001300C1F30A5640F4801543F48013A7EBDB
:1009D0000608101BD64608F2FD3873EB050002D35B
:1009E00008F1010801E092185B41B8F1000F03DA49
:1009F00000200146BDE8F08D00204FF4801106462E
:100A000084460EE0171B73EB050705D3121B63EB3F
:100A1000050306434CEA010C49084FEA30009218DE
:100A20005B4150EA0107EDD152EA030012D082EA9D
:100A3000040083EA0501084305D0101BAB4106D230
:100A40000122002306E000224FF0004302E06FF095
:100A5000010253101AEB06004CEB085110EB0A0090
:100A600041EB0B01BDE8F04D00F01DB90EB5C10F13
:100A700080EAE0700844CA07002140F233438DE861
:100A80000E000A460B4600F01DF903B000BD00F051
:100A9000004220F00040C10DC0F3160040F40000F9
:100AA0007F2901DA00207047962903DCC1F1960105
:100AB000C84001E096398840002AF4D0404270478F
:100AC00020F00040C10DC0F3160040F400007F2963
:100AD00001DA00207047962903DCC1F19601C84075
:100AE000704796398840704700F0004230F000406F
:100AF0000AD0C10D01F56071C0F3160042EA015140
:100B0000C20840071143704700200146704701F0BA
:100B1000004330B421F0004150EA010206D00A0D32
:100B2000A2F56072C1F31301002A02DC30BC002080
:100B30007047440F44EAC104C100E01830BC00EB28
:100B4000C25000F079B80000002801DBC0F100407D
:100B5000002901DBC1F1004181427047002801DB1F
:100B6000C0F10040002901DBC1F10041884270471B
:100B7000202A04DB203A00FA02F10020704791405D
:100B8000C2F1200320FA03F3194390407047202A52
:100B900006DBCB17203A41FA02F043EAE07306E0A5
:100BA00041FA02F3D040C2F12002914008431946B5
:100BB00070473A2800D2303820F02002412A01D371
:100BC000A2F13700884201D34FF0FF307047000098
:100BD000026811441378016018467047D1600449D7
:100BE00051610449116200211161114600F0ECB815
:100BF000D10B0008BD0D0008426842B1016811F830
:100C0000013B23B1521EC0E9001218467047012172
:100C1000C160881E704742685AB1C368016843B911
:100C200083688B4205D0491E521CC0E90012002087
:100C300070474FF0FF3070470029A8BF7047401C35
:100C4000490008BF20F00100704710B4B0FA80FCE2
:100C500000FA0CF050EA010404BF10BC704749B11F
:100C6000CCF1200421FA04F411FA0CF118BF01218F
:100C700021430843A3EB0C01CB1D4FEA00614FEA6F
:100C8000102042BF002010BC704700EBC35010443E
:100C90000029A4BF10BC7047401C490008BF20F0C9
:100CA000010010BC704710B5141E73F1000408DA7F
:100CB000401C41F1000192185B411A4301D120F020
:100CC000010010BD2DE9F04D92469B4611B1B1FADD
:100CD00081F202E0B0FA80F220329046FFF748FF3E
:100CE00004460F4640EA0A0041EA0B0153465A46C1
:100CF000084313D0114653EA010019D0C8F140024D
:100D0000504600F04BF805460E46504659464246BE
:100D1000FFF72EFF084305D0012004E020463946A6
:100D2000BDE8F08D0020054346EAE0762C433743CA
:100D30000A986305E40AA0EB08000022FD0A44EAD1
:100D400047540A3002D500200146E9E70105101991
:100D50006941DDE9084500196941BDE8F04DA2E7A8
:100D60000EB540F2334202920022CDE90022134632
:100D7000FFF7A8FF03B000BD064C074D06E0E06892
:100D800040F0010394E8070098471034AC42F6D3D2
:100D9000FFF7D2F9B02A0008D02A0008202A04DB85
:100DA000203A21FA02F00021704721FA02F3D040E4
:100DB000C2F120029140084319467047C0B24FF477
:100DC000F05100F097B900002DE9F34F8BB04FF0D0
:100DD000000801F10C000C464FF0010B46460DF1E6
:100DE000080A0190626901210198904705002DD001
:100DF000252D2CD0216A8847C0B162690121019854
:100E00009047216A88470028F7D1411E62690198FE
:100E1000904700E0761CA1690B988847216A8847B3
:100E20000028F7D1E1690B988847DBE7A1690B98A7
:100E300088470746A84201D1761CD3E7E1690B98A1
:100E400088477F1C02D1B8F1000F6FD046E1002720
:100E500062693D463946019890472A2804D1626963
:100E60000121019890470125DFF8849262690121F0
:100E700001989047A0F130010A290AD24F45E5DCDC
:100E800007EB870100EB4107303FDFD445F0100549
:100E9000ECE7E90601D46FF000476C280AD04C2833
:100EA00014D0682815D06A280DD074281CD07A2850
:100EB0001AD01DE062690121019890476C2802D088
:100EC00045F0040514E045F002050DE045F020056D
:100ED0000AE06269012101989047682802D045F034
:100EE000080505E045F40065626901210198904715
:100EF000C4E9015765283DD019DC58287AD00CDCAC
:100F0000452837D004DC252826D0412831D131E0CE
:100F100046282FD047282CD12CE05B2877D0612899
:100F200028D063287CD0642823D15AE0D0E06F28F1
:100F300048D008DC66281DD067281BD0692821D03E
:100F40006E2816D127E0702845D0732868D0752800
:100F500047D078280DD14DE0A1690B988847054608
:100F600025283FF469AFE1690B9888476D1C3FF471
:100F70006AAFB3E023466A466FF001000B99FFF7B2
:100F800047FA9EE045F040006060A80723464FF016
:100F9000000236D43EE0E8077FF447AF2068011D29
:100FA00021600068290501D506701BE7290701D5D6
:100FB000068017E7A90703D5F117C0E9006111E71B
:100FC00006600FE745F040006060A80723464FF039
:100FD000080216D41EE040F60E0125EA010060600A
:100FE00016E045F040006060A80723464FF00A0273
:100FF00007D40FE045F040006060A80708D52346FD
:1010000010226FF001000B99AFF3008059E007E068
:10101000234610226FF001000B99FFF7D3F850E040
:101020004FF000094F464B46632802D05B2806D09C
:1010300040E0E80601D40120A06001273AE062699F
:101040000121019890475E2805D14FF0010962699E
:10105000494601989047216939B900210A4653460B
:1010600043F82120491C0829FADBB0B3216969B98A
:10107000C11700EBD16253110AEB830122F01F026A
:10108000821A01200B68904003430B6062690121C2
:10109000019890475D28E8D1B9F1000F09D00020F0
:1010A000514651F82020D24341F82020401C082806
:1010B000F7DB02AB224600976FF001000B99AFF30C
:1010C000008000280CDA401C08D1BBF1000F05D0CD
:1010D0004FF0FF300DB0BDE8F08FFFE74046F9E775
:1010E000E90701D108F1010806444FF0000B79E649
:1010F000CCCCCC0C7F2801D9002208E0064A02EBB8
:101100005002C007127800D1120902F00F0201202C
:1011100090400840704700006E2A000800BFFEE7BC
:1011200020490A780978491C1E4B19701E498854B9
:101130000978552903D000211A46117070471949C2
:1011400009780B2900DAF9E717494978512904D0C1
:1011500052290AD053291ED10FE01449124A921C79
:1011600013680B6052684A6015E011490E4A921CE0
:1011700013680B6052684A600DE00E490A4A921CDF
:1011800013680B6052684A60098801F5004109B292
:10119000084A118000BF00BF0021024A117000BF41
:1011A000CCE700002C000020680100200000002097
:1011B000080000201000002070472DE9F041024691
:1011C00000250026002000230024002791F803C0FA
:1011D0000CF00F0591F803C00CF0100CBCF1000FDF
:1011E00003D091F802C04CEA050591F800C0BCF1AB
:1011F000000F31D0146800202BE04FF0010C0CFAE6
:1012000000F3B1F800C00CEA03069E4220D183002F
:101210004FF00F0C0CFA03F7BC4305FA03FC4CEA41
:10122000040491F803C0BCF1280F06D14FF0010C63
:101230000CFA00FCC2F814C00AE091F803C0BCF13B
:10124000480F05D14FF0010C0CFA00FCC2F810C099
:10125000401C0828D1D31460B1F800C0BCF1FF0FC6
:1012600034DD546800202EE000F1080C4FF0010836
:1012700008FA0CF3B1F800C00CEA03069E4221D133
:1012800083004FF00F0C0CFA03F7BC4305FA03FC84
:101290004CEA040491F803C0BCF1280F05D100F119
:1012A000080C08FA0CF8C2F8148091F803C0BCF1DD
:1012B000480F07D100F1080C4FF0010808FA0CF8AC
:1012C000C2F81080401C0828CED35460BDE8F081DD
:1012D000416170470161704700BFFEE710B586B0FD
:1012E0000446012144F2040000F0ECF94FF40070D0
:1012F000ADF8140018208DF8170003208DF81600A3
:1013000005A91B48FFF759FF4FF48060ADF81400A2
:1013100004208DF8170005A91548FFF74EFF01942A
:101320000020ADF80800ADF80A00ADF80C00ADF8EB
:1013300010000C20ADF80E0001A90E4800F02CFFA3
:10134000002240F227710B4800F000FF012240F21A
:101350002551084800F0FAFE4021064800F0A8FE9A
:101360000121044800F0BCFE00F050F906B010BDA9
:10137000000801400038014000BFFEE77047000050
:101380001CB511A103C9CDE90001082000F088FABD
:1013900005226946302000F003F905226946102035
:1013A00000F0ACF8002406E01DF80400A52800D0E9
:1013B00003E0601CC4B2052CF6DB00BF052C01D095
:1013C00001201CBD0020FCE7A5A5A5A5A5000000E7
:1013D00000B587B00121082000F074F94FF4805067
:1013E000ADF8180010208DF81B0003208DF81A00AE
:1013F00006A92848FFF7E1FE4FF480512548FFF782
:1014000069FF6020ADF8180006A92248FFF7D5FE55
:101410008020ADF8180028208DF81B0006A91D4873
:10142000FFF7CBFE4FF4E0711A48FFF751FF00F0D1
:10143000C3F90021184800F047FA0020ADF8040075
:101440004FF48270ADF806000020ADF80800ADF84A
:101450000A00ADF80C004FF40070ADF80E00182033
:10146000ADF810000020ADF812000720ADF8140010
:1014700001A9094800F042FA0121074800F024FAC6
:1014800000200649086001200549C1F8980107B00D
:1014900000BD0000000C0140003800409481214252
:1014A0000080214210B50020114908600522114931
:1014B0002A2000F075F80121212000F08FF8012189
:1014C000222000F08BF82821252000F087F8202129
:1014D000312000F083F80F21262000F07FF80F2143
:1014E000202000F07BF801200349C1F8940110BDD1
:1014F00094812142692A0008008021422DE9F041AF
:1015000007460D46164600200A490860384600F096
:101510009DF98046002405E0FF2000F097F928554A
:10152000601CC4B2B442F7DB0120024908604046A7
:10153000BDE8F0819881214270B50446002007493A
:101540000860204600F082F9FF2000F07FF9054690
:1015500001200349C1F89801284670BD98812142B5
:101560000080214270B50446102000F099F9072050
:10157000FFF7E2FF05462946272000F02FF805F087
:10158000400050B1202221466120FFF7B7FFFF2124
:10159000E22000F023F8002070BD0120FCE70000ED
:1015A0002DE9F04107460C46154600200A4908601F
:1015B000384600F04BF98046002605E014F8010B90
:1015C00000F044F9701CC6B2AE42F7DB01200249BC
:1015D00008604046BDE8F0819881214270B505461B
:1015E0000C46002007490860284600F02FF90646FF
:1015F000204600F02BF901200349C1F8980130463C
:1016000070BD0000988121420080214208B525204C
:101610008DF8000001208DF8010007208DF80200F0
:1016200001208DF80300684600F002F808BD0000B4
:1016300070B5002100230F22C47804B3154C246830
:1016400004F4E064C4F5E064210AC1F10403CA4073
:10165000447804FA03F184781440214309010E4CC4
:101660000678A155047804F01F050124AC400578E4
:101670006D11AD0005F1E025C5F8004109E00478E1
:1016800004F01F050124AC40044D0678761145F89E
:10169000264070BD0CED00E000E400E080E100E0D9
:1016A0007047000029B1064AD2690243044BDA614F
:1016B00004E0034AD2698243014BDA6170470000BB
:1016C0000010024029B1064A92690243044B9A6114
:1016D00004E0034A92698243014B9A61704700001B
:1016E0000010024030B500210022002400232D4DBF
:1016F0006D6805F00C0121B1042905D0082923D11A
:1017000005E0294D056022E0274D05601FE0254DCD
:101710006D6805F47012234D6D6805F48034022560
:1017200005EB92421CB9214D554305600BE01D4D60
:101730006D6805F400351DB11C4D5543056002E090
:10174000194D5543056002E0174D056000BF00BF0D
:10175000144D6D6805F0F0010909154D6B5C0568C5
:10176000DD4045600F4D6D6805F4E061090A104DDC
:101770006B5C4568DD4085600A4D6D6805F460511D
:10178000C90A0B4D6B5C4568DD40C560054D6D6851
:1017900005F44041890B074D6B5CC568B5FBF3F55B
:1017A000056130BD0010024000127A0000093D00C2
:1017B000320000204200002000B587B0012108203F
:1017C000FFF780FF01218803FFF76CFF4FF46040B3
:1017D000ADF8180018208DF81B0003208DF81A00B2
:1017E00006A91848FFF7E9FC4FF460411548FFF7D8
:1017F00071FD0020ADF804004FF48270ADF80600D2
:101800000020ADF808000220ADF80A000120ADF874
:101810000C004002ADF80E003820ADF8100000209A
:10182000ADF812000720ADF8140001A9064800F039
:1018300065F80121044800F047F8FF2000F006F8A1
:1018400007B000BD000C01400038004070B50546EF
:10185000002405E0601CC4B2C82C01DD002070BD6E
:1018600002210E4800F03CF80028F3D029460B482E
:1018700000F042F8002405E0601CC4B2C82C01DD71
:101880000020ECE70121054800F02AF80028F3D0F9
:10189000024800F02EF8C0B2E1E700000038004036
:1018A00010B50446074800884FF6C771084005493F
:1018B000088008460088204308800121014800F084
:1018C00003F810BD0038004021B1028842F0400208
:1018D000028004E002884FF6BF731A40028070470E
:1018E0000246002013890B400BB1012000E00020CC
:1018F00070470146888970478181704710B5002282
:10190000028802F441520B884C8823438C8823437D
:10191000CC8823430C8923434C8923438C8923435C
:10192000CC8923431A430280838B4FF2FF742340F8
:1019300083830B8A038210BD704710B500F002F854
:1019400010BD00000CB500200190009033480068E5
:1019500040F480303149086000BF3048006800F42E
:10196000003000900198401C0190009818B901982F
:10197000B0F5A06FF1D12948006800F4003010B133
:101980000120009001E0002000900098012843D140
:101990002348006840F010002149086008460068AC
:1019A00020F0030008600846006840F0020008606C
:1019B0001A48406819494860084640684860084627
:1019C000406840F4806048600846406820F47C101D
:1019D00048600846406840F4E810486008460068DF
:1019E00040F08070086000BF0C48006800F0007094
:1019F0000028F9D00948406820F0030007494860F2
:101A00000846406840F00200486000BF0348406854
:101A100000F00C000828F9D10CBD000000100240B5
:101A20000020024010B51348006840F00100114941
:101A3000086008464068104908400E49486008465A
:101A400000680E4908400B4908600846006820F409
:101A5000802008600846406820F4FE0048604FF48B
:101A60001F008860FFF769FF4FF0006004490860BD
:101A700010BD0000001002400000FFF8FFFFF6FE5E
:101A800008ED00E030B589B004460D460121022082
:101A9000FFF708FE01210420FFF714FE01210820B2
:101AA000FFF710FEC020ADF8200018208DF82300AD
:101AB00003208DF8220008A92648FFF77EFB0320AB
:101AC000ADF8200008A92448FFF777FBA8B2ADF8CD
:101AD00014000020ADF81600A0B2ADF818000020E8
:101AE000ADF81A0005A91D4800F010FA7020ADF8F5
:101AF00004000120ADF806000220ADF80C0001A999
:101B0000164800F0A7F801A9144800F0F9F801A957
:101B1000124800F055F901A9104800F0ABF908216E
:101B20000E4800F0E3F808210C4800F03BF90821CA
:101B30000A4800F095F90821084800F0D9F9012178
:101B4000064800F051F80121044800F05CF809B0A3
:101B500030BD000000080140000C014000040040BE
:101B600010B50121064800F05AF840B10548006858
:101B7000401C044908600121014800F041F810BDF3
:101B800000080040180000207FB505460C460121E2
:101B90000420FFF787FDADF80850ADF804400020A1
:101BA000ADF80600ADF80A0001A90E4800F0AEF944
:101BB000012211460B4800F043F81E208DF800006A
:101BC00001208DF8010003208DF8020001208DF81E
:101BD00003006846FFF72CFD0121024800F013F8CE
:101BE0007FBD00000008004021B1028842F0800261
:101BF000028004E002884FF67F731A40028070472B
:101C0000CA430282704721B1028842F00102028079
:101C100004E002884FF6FE731A400280704730B528
:101C20000246002000230024158A05EA0103958955
:101C300005EA010413B10CB1012000E0002030BD21
:101C40001AB183890B43838102E083898B438381AB
:101C50007047000070B5002400220023058C4FF669
:101C6000FE7635400584028C8388048B4FF68F7591
:101C70002C40B51E2C400D882C43751E2A400D8922
:101C80002A434D882A43144DA8420BD0134DA84235
:101C900008D0134DA84205D0124DA84202D0124DD3
:101CA000A84213D14FF6F7752A404D892A434FF6C3
:101CB000FB752A408D882A434FF6FF652B404FF66F
:101CC000FF552B408D892B43CD892B438380048383
:101CD000CD888586028470BD002C0140003401400F
:101CE0000040014000440140004801400A460021F4
:101CF000018B4FF6F77319401143018370470000C1
:101D000070B5002400220023058C4FF6EF76354095
:101D10000584028C8388048B48F6FF752C404FF6AF
:101D2000FF452C400D884FF6FF7606EA05252C432B
:101D30004FF6DF752A400D8906EA05152A434D88BE
:101D400006EA05152A43154DA84202D0144DA842B3
:101D50001DD14FF67F752A404D894FF6FF7606EA72
:101D600005152A434FF6BF752A408D8806EA0515EA
:101D70002A434FF6FF352B404FF2FF752B408D89DC
:101D800006EA85052B43CD8906EA85052B4383802A
:101D90000483CD880587028470BD0000002C0140BB
:101DA000003401400A460021018B4FF2FF731940B5
:101DB0004FF6FF7303EA02231943018370470000C3
:101DC00070B5002400220023058C4FF6FF663540D5
:101DD0000584028C8388848B4FF68F752C404FF6D8
:101DE000FC752C400D882C434FF6FF552A400D8979
:101DF0004FF6FF7606EA05252A434D8806EA0525B3
:101E00002A43154DA84202D0144DA8421DD14FF2CD
:101E1000FF752A404D894FF6FF7606EA05252A43CD
:101E20004FF6FF352A408D8806EA05252A434EF6EF
:101E3000FF752B404DF6FF752B408D8906EA051581
:101E40002B43CD8906EA05152B4383808483CD88F7
:101E50008587028470BD0000002C014000340140E1
:101E60000A460021818B4FF6F77319401143818395
:101E70007047000070B5002200230024058C4EF648
:101E8000FF7635400584038C8488828B48F6FF7585
:101E90002A404FF6FF452A400D884FF6FF7606EAA6
:101EA00005252A434DF6FF752B400D8906EA0535B9
:101EB0002B434D8806EA05352B430B4DA84202D033
:101EC0000A4DA84208D14BF6FF752C408D894FF67C
:101ED000FF7606EA85152C4384808283CD88A0F89E
:101EE0004050038470BD0000002C014000340140CC
:101EF0000A460021818B4FF2FF7319404FF6FF73A2
:101F000003EA0223194381837047000000220288FC
:101F10001D4B98420ED01D4B98420BD0B0F1804F14
:101F200008D01B4B984205D01A4B984202D01A4B4E
:101F3000984204D14FF68F731A404B881A43174BBF
:101F4000984207D0164B984204D04FF6FF431A40F0
:101F5000CB881A4302808B8883850B8803850A4BC4
:101F600098420BD0094B984208D00E4B984205D0AE
:101F70000D4B984202D00D4B984201D10B7A03864B
:101F80000123838270470000002C0140003401408F
:101F90000004004000080040000C00400010004019
:101FA000001400400040014000440140004801404E
:101FB00010B540F227711C4800F09EF8E0B11B48B4
:101FC00002780078401C194B18701948815C16483B
:101FD00000F053F91548007816490978884205D170
:101FE000002240F22771104800F0B0F840F227714B
:101FF0000D4800F066F810E040F225510A4800F064
:102000007BF850B10849091D0988C8B2FFF788F864
:1020100040F22551044800F054F84FF4587102483A
:1020200000F04FF810BD0000003801402D000020E6
:10203000620200202E00002010B540F227711848DF
:1020400000F05AF8E0B1174802780078401C154BB0
:1020500018701548815C124800F00FF940F22771A2
:102060000F4800F02EF80F48007810490978884290
:1020700015D1002240F22771094800F067F80EE000
:1020800040F22551064800F037F840B1044800F00E
:10209000EFF8C4B240F22551014800F012F810BD2B
:1020A000004400402F0000205C040020300000208D
:1020B00001F40072B2F5007F00D100BFCA43028074
:1020C000704710B50022002340F66A14A14200D1E7
:1020D00000BF0A1201249440A3B2DC43048010BD67
:1020E00021B1828942F40052828104E082894DF656
:1020F000FF731A408281704770B5024600240023A6
:102100000025002040F66A16B14200D100BFC1F39D
:10211000421501F01F03012606FA03F3012D02D137
:102120009689334006E0022D02D1168A334001E041
:10213000968A33400C12012606FA04F416883440BD
:1021400013B10CB1012000E0002070BDF0B50346D2
:10215000002400260025002040F66A17B94200D16D
:1021600000BF1846C1F3421401F01F06012707FA09
:1021700006F5012C01D10C3004E0022C01D1103005
:1021800000E014301AB107682F43076002E00768C7
:10219000AF430760F0BD00002DE9F04786B005466B
:1021A0000E460024A24600BFA1460027B08900B118
:1021B00000BF2F462C8A4CF6FF700440F088044381
:1021C0002C82AC894EF6F3100440B0883189084364
:1021D000718908430443AC81AC8A4FF6FF40044048
:1021E000B0890443AC8201A8FFF77CFA1F488742FC
:1021F00002D1DDF810A001E0DDF80CA0A88900F400
:10220000004040B10AEBCA0000EB0A1031684900F7
:10221000B0FBF1F807E00AEBCA0000EB0A103168E6
:102220008900B0FBF1F86420B8FBF0F0040120094C
:10223000642101FB1089A88900F4004040B13220DC
:1022400000EBC900B0FBF1F000F00700044308E028
:10225000322000EB09106421B0FBF1F000F00F0018
:1022600004432C8106B0BDE8F0870000003801402F
:1022700001468888C0F308007047C1F308028280D5
:10228000704700BFFEE702E008C8121F08C1002A1D
:10229000FAD170477047002001E001C1121F002AE7
:1022A000FBD1704730380A2801D201207047002046
:1022B000704700000FB42DE9F04F87B08246BDF99A
:1022C0004C00FEF7D3FB80460022444BFEF7EDFAAC
:1022D00006460022424BFEF75AFB0446FEF717FC67
:1022E0008346DAF80000FEF7FFFB06463D4A3E4B08
:1022F000FEF7DBFA0446FEF70AFC18223B4906907B
:102300006846FDF731FF3948083859460CC8069829
:1023100000F080F836490860BDF94E00FEF7A6FBD4
:10232000064600222D4BFEF7C0FA804600222C4BB9
:10233000FEF72DFB0446FEF7EAFB8346DAF80400BD
:10234000FEF7D2FB0646274A2A4BFEF7AEFA0446B2
:10235000FEF7DDFB1822284906906846FDF704FFCA
:102360002548083859460CC8069800F053F8234908
:102370000860DAF80800FEF7B7FB214A214BCDE9E7
:102380000401FEF792FA04460D461F480068FEF766
:10239000ABFB064622462B46FEF7E0F98046FEF7E9
:1023A000B6FB19490860002117480068FEF7CCFB0E
:1023B00002D8002014490860144913480068FEF749
:1023C000CDFB02D81148104908600F480068104939
:1023D000086007B0BDE8F00F5DF814FB00806640B0
:1023E0000000E0407B14AE47E17A94BFB0000020CB
:1023F000F4000020E17A943FD0000020F800002093
:10240000FCA9F1D24D62503F04010020000061445C
:10241000000100200FB42DE9F047044689464946E3
:102420002046FEF763F90D900D990F98FEF70CF911
:102430000F900F98FEF758FB07464FF06632254B7A
:10244000FEF733FA0546FEF762FB0F9022490F981C
:10245000FEF784FB01D820480F9020490F98FEF723
:1024600073FB01D81D480F900F990D98FEF744F9A2
:1024700005460021FEF772FB01D200200F90DDE936
:102480000D01FEF733F910900D980E9010990C98ED
:10249000FEF732F906460F990B98FEF72DF907461D
:1024A0000D990A98FEF728F980463946FEF7CCF8D0
:1024B00005463146FEF71AF9119009491198FEF7C1
:1024C0004DFB01D2064811901198BDE8F0075DF868
:1024D00014FB00006666EE3F0000C8420000C8C260
:1024E000000096432DE9F74F88B08246BDF92400DD
:1024F000FEF7BCFA06460022354BFEF7D6F98046B9
:102500000022344BFEF743FA0446FEF700FB8346F5
:10251000182231496846FDF727FE2F4808385946EA
:102520000CC82E480068FFF775FF2D490860BDF9FB
:102530002600FEF79BFA804600222A4BFEF7B5F9EB
:1025400006460022234BFEF722FA0446FEF7DFFA86
:102550008346182224496846FDF706FE22480838BB
:1025600059460CC821480068FFF754FF204908600D
:10257000BDF92800FEF77AFA80460022144BFEF7D8
:1025800094F906460022134BFEF701FA0446FEF7C3
:10259000BEFA8346DAF80C00FEF7A6FA0646154A9C
:1025A000154BFEF782F90446FEF7B1FA18221349DB
:1025B00007906846FDF7D8FD1048083859460CC802
:1025C0000798FFF727FF0E4908600BB0BDE8F08FB2
:1025D00000409F400000E04050000020F400002038
:1025E000E800002000409FC070000020F80000209C
:1025F000EC0000209A9999999999A93F90000020A0
:10260000F000002086B0482140F2E730FFF73AFAA8
:10261000482142F20F70FFF7B7FA4FF4E130FEF7AE
:102620005DFEFEF7D5FE00203D49086000BFFEF7C5
:10263000A7FE0028FBD1FEF735FF6FE03948FEF713
:1026400091FFD8B90020374981F8200000BF04E08D
:102650003449095C344A1154401C2128F8DB3348C2
:10266000031F33490A1FCDE9011300920390131F82
:10267000083A30A12C48FDF789FD04E000BFFEF7C1
:102680007FFE0028FBD13048006868B9002006E0D2
:102690002E4931F910102E4A42F82010401C032810
:1026A000F6DB0120284908601D480068012835DB59
:1026B00000200BE0254931F81010254A32F820207F
:1026C000891A09B2214A22F81010401C0328F1DBB4
:1026D00020480168049140680246059014480C386F
:1026E000FFF700FF194840680090184801680491FE
:1026F00040680590184801680291406803900246BE
:102700000B480C38049BFFF7D5FD0849091F084802
:102710000C3800F023F80020014908608EE7000023
:1027200018000020080100202901002020000020BE
:10273000580100202A432566432566432566432524
:102740006643256443256400280000201000002013
:102750005C01002008000020000000202DE9F04F5F
:102760008FB004468946B4480068FEF7BDF9CDE94C
:102770000A012068FEF7B8F90546B04AB04BFEF7EB
:1027800094F8CDE90601AF480068FEF7ADF982463E
:102790008B466068FEF7A8F9A84AA94BCDE900016D
:1027A000FEF783F805460E46A7480168A74800686B
:1027B000FDF74AFF0190FEF797F907462A46334690
:1027C000FDF7CCFF52465B46CDE90201FDF7C6FF9F
:1027D000CDE90401DDE90623FEF761F8CDE9080142
:1027E000DDE90A23FDF7BAFFCDE90C01FEF78FF909
:1027F0009749086090480068FEF776F9CDE90A012C
:102800002068FEF771F905468C4A8D4BFEF74DF8AE
:10281000CDE906018B480068FEF766F9CDE90201B3
:102820006068FEF761F98246844A854BFEF73DF801
:10283000CDE900018448016884480068FDF704FF81
:102840008246FEF751F90546DDE90023FDF786FFD4
:102850000746DDE90223FEF722F8CDE90401DDE9B0
:102860000623FDF77BFFCDE90801DDE90A23FEF72A
:1028700016F8CDE90C01FEF74AF9754948606E4833
:102880000068FEF731F9CDE90A012068FEF72CF95E
:1028900005466A4A6A4BFEF708F8CDE90601694821
:1028A0000068FEF721F9CDE902016068FEF71CF926
:1028B0008246624A624BFDF7F8FF05460E466248C3
:1028C000016862480068FDF711FF8246FEF70CF9C7
:1028D00007462A463346FDF7E2FFCDE90001DDE970
:1028E0000223FDF73BFFCDE90401DDE90623FDF7F7
:1028F000D6FFCDE90801DDE90A23FDF7D0FFCDE9D8
:102900000C01FEF704F9524988604B480068FEF755
:10291000EBF8CDE90A012068FEF7E6F80546474ADC
:10292000474BFDF7C2FFCDE9060146480068FEF7B8
:10293000DBF8CDE902016068FEF7D6F807463F4AAA
:102940003F4BFDF7B2FF05460E463F4801683F4842
:102950000068FDF7CBFE0746FEF7C6F882462A461A
:102960003346FDF79CFFCDE90001DDE90223FDF7C9
:1029700096FFCDE90401DDE90623FDF7EFFECDE981
:102980000801DDE90A23FDF7E9FECDE90C01FEF7B8
:10299000BEF82F49C860002511E02D4951F82500E7
:1029A0000021FEF7D1F805D92A492B480068FEF727
:1029B000CBF803D80020264941F825006D1C042DD2
:1029C000EBDBD9F8040058B900202349086000BFA8
:1029D00004E000211E4A42F82010401C0428F8DBC5
:1029E000002508E01A4951F82500FEF750F81B4968
:1029F00041F825006D1C042DF4DB15490868FEF72D
:102A00005FF81749088012494868FEF759F81449D9
:102A1000091D08800E498868FEF752F810490831F0
:102A200008800B49C868FEF74BF80D490C31088047
:102A30000FB0BDE8F08F0000F00000209A9999993E
:102A40009999A93FE8000020EC0000200001002037
:102A500060050020000020410401002070050020D6
:102A60003404004034431010013443101001DDDD04
:102A7000DDDDDCBBBBDDDDDDDDDDDDDDDDDD988865
:102A80008888888888887777777777888888855551
:102A900055566666666666666666666888888333C7
:102AA000333222222222222222222228888D000052
:102AB000D02A00080000002008010000862200083B
:102AC000D82B000808010020780800009622000892
:102AD00000000000000000000000000000000000F6
:102AE00000000000000000000000000000000000E6
:102AF00000000000000000000000000000000000D6
:102B000000000000000001020304010203040607A4
:102B100008090204060800009A99993F0AD7A33CC5
:102B20009A99193F0000000000000000000000001A
:102B300000000000000000009A99993F0AD7A33CCA
:102B40009A99193F000000000000000000000000FA
:102B5000000000000000000033337340CDCC0C3F78
:102B6000CDCCCC3D000000000000000000000000C3
:102B700000000000000000006666A63F00000000A4
:102B8000CDCCCC3D000000000000000000000000A3
:102B900000000000000000006666A63F0000000084
:102BA000CDCCCC3D00000000000000000000000083
:102BB0000000000000000000000000000000000015
:102BC0000000000000000000000000000000000005
:082BD0000000000000000000FD
:0400000508000145A9
:00000001FF
