:020000040800F2
:100000008807002045010008690700087F060008EE
:1000100065070008E50400083F1200080000000022
:10002000000000000000000000000000990D000822
:10003000E904000800000000C90A0008AD0E00082D
:100040005F0100085F0100085F0100085F01000810
:100050005F0100085F0100085F0100085F01000800
:100060005F0100085F0100085F0100085F010008F0
:100070005F0100085F0100085F0100085F010008E0
:100080005F0100085F0100085F0100085F010008D0
:100090005F0100085F0100085F0100085F010008C0
:1000A0005F0100085F0100085F0100085F010008B0
:1000B0005F0100085F0100085F0100085F010008A0
:1000C0005F0100085F0100085F0100085F01000890
:1000D0005F010008790F0008F50F00085F010008B4
:1000E0005F0100085F0100085F0100085F01000870
:1000F0005F0100085F0100085F0100085F01000860
:100100005F0100085F0100085F0100085F0100084F
:100110005F0100085F0100085F0100085F0100083F
:100120005F0100085F0100085F0100085F0100082F
:10013000DFF80CD000F088F8004800477D14000874
:10014000880700200648804706480047FEE7FEE78C
:10015000FEE7FEE7FEE7FEE7FEE7FEE7FEE7FEE777
:10016000B90E000831010008C10F80EAE0700844B0
:10017000CA079623002100F038B800F0004220F0B2
:100180000040C10DC0F3160040F400007F2901DAE1
:1001900000207047962903DCC1F19601C84001E0B8
:1001A00096398840002AF4D04042704730B50B465B
:1001B000014600202022012409E021FA02F59D4297
:1001C00005D303FA02F5491B04FA02F52844151E6B
:1001D000A2F10102F1DC30BD0029A8BF7047401C2C
:1001E000490008BF20F00100704710B4B0FA80FC4D
:1001F00000FA0CF050EA010404BF10BC704749B18A
:10020000CCF1200421FA04F411FA0CF118BF0121F9
:1002100021430843A3EB0C01CB1D4FEA00614FEAD9
:10022000102042BF002010BC704700EBC3501044A8
:100230000029A4BF10BC7047401C490008BF20F033
:10024000010010BC70470000064C074D06E0E06856
:1002500040F0010394E8070098471034AC42F6D30D
:10026000FFF76AFF481700086817000821B1826885
:1002700042F00102826003E0826822F001028260A3
:100280007047000010B504461248844208D101218D
:10029000401500F047FC0021601500F043FC17E01A
:1002A0000D48844208D10121001500F03BFC0021DB
:1002B000201500F037FC0BE00848844208D10121EA
:1002C000C80300F02FFC00214FF4004000F02AFC8E
:1002D00010BD00000024014000280140003C014006
:1002E000014600208A6802F004020AB1012000E001
:1002F000002070470146C86C80B27047024600205B
:1003000013680B400BB1012000E00020704701464C
:1003100000208A6802F008020AB1012000E00020F3
:100320007047000030B502460020002350680F4C93
:1003300020400D790C6844EA052420435060906801
:100340000B4C2040D1E902542C434D7944EA45043A
:1003500020439060D06A20F470000C7C641EE4B2EC
:10036000234340EA0350D06230BD0000FFFEF0FF9F
:10037000FDF7F1FFF0B504460D4600200021092DE0
:1003800011DDE068A5F10A0606EB4607072606FA26
:1003900007F18843A5F10A0606EB460603FA06F1C3
:1003A0000843E0600CE0206905EB4507072606FAE4
:1003B00007F1884305EB450603FA06F1084320617F
:1003C000072A0FDA606B561E06EB86071F2606FA11
:1003D00007F18843561E06EB860605FA06F1084328
:1003E000606322E00D2A0FDA206BD61F06EB86072A
:1003F0001F2606FA07F18843D61F06EB860605FA84
:1004000006F10843206310E0E06AA2F10D0606EB56
:1004100086071F2606FA07F18843A2F10D0606EBB0
:10042000860605FA06F10843E062F0BD816841F0F6
:1004300008018160704721B1826842F4A0028260A5
:1004400003E0826822F4A00282607047816841F074
:10045000040181607047000000B587B001214FF4AE
:10046000017000F04FFB4FF4004000F02FFB0F2015
:10047000ADF8040000208DF8070001A9174800F02E
:1004800034F81748FFF7FEFE002002908DF80C00AC
:100490008DF80D004FF4602004900020059001209D
:1004A0008DF8180002A90E48FFF73CFF01210C4807
:1004B000FFF7DCFE0A48FFF7B9FF00BF0848FFF767
:1004C00026FF0028FAD10648FFF7C0FF00BF044806
:1004D000FFF706FF0028FAD107B000BD0008014071
:1004E0000024014000BFFEE770472DE9F0410246BD
:1004F00000250026002000230024002791F803C0D7
:100500000CF00F0591F803C00CF0100CBCF1000FBB
:1005100003D091F802C04CEA050591F800C0BCF187
:10052000000F31D0146800202BE04FF0010C0CFAC2
:1005300000F3B1F800C00CEA03069E4220D183000C
:100540004FF00F0C0CFA03F7BC4305FA03FC4CEA1E
:10055000040491F803C0BCF1280F06D14FF0010C40
:100560000CFA00FCC2F814C00AE091F803C0BCF118
:10057000480F05D14FF0010C0CFA00FCC2F810C076
:10058000401C0828D1D31460B1F800C0BCF1FF0FA3
:1005900034DD546800202EE000F1080C4FF0010813
:1005A00008FA0CF3B1F800C00CEA03069E4221D110
:1005B00083004FF00F0C0CFA03F7BC4305FA03FC61
:1005C0004CEA040491F803C0BCF1280F05D100F1F6
:1005D000080C08FA0CF8C2F8148091F803C0BCF1BA
:1005E000480F07D100F1080C4FF0010808FA0CF889
:1005F000C2F81080401C0828CED35460BDE8F081BA
:100600000246002093680B400BB1012000E000205F
:1006100070474161704701617047000010B50446A2
:100620000723012221460948FFF7A4FE01210748BC
:10063000FFF701FF00BF02210448FFF75FFE00281B
:10064000F9D00248FFF756FE10BD0000002401401B
:100650002DE9F04107460C460025002608E0384603
:10066000FFF7DCFF0544052000F0E2FE701CC6B277
:10067000A642F4DBB5FBF4F080B2BDE8F08100BF28
:10068000FEE7000010B586B00446012144F20400E4
:1006900000F038FA4FF40070ADF8140018208DF80F
:1006A000170003208DF8160005A91B48FFF71DFF52
:1006B0004FF48060ADF8140004208DF8170005A9F0
:1006C0001548FFF712FF01940020ADF80800ADF8BF
:1006D0000A00ADF80C00ADF810000C20ADF80E00CB
:1006E00001A90E4800F036FD002240F227710B48A8
:1006F00000F00AFD012240F22551084800F004FDF7
:100700004021064800F0B2FC0121044800F0C6FC7C
:1007100000F090F906B010BD00080140003801401B
:1007200008B501210C2000F0EDF94FF44070ADF850
:10073000000048208DF8030069460848FFF7D5FE01
:10074000C020ADF8000010208DF8030003208DF8C4
:10075000020069460248FFF7C8FE08BD000C0140D0
:100760000008014000BFFEE7704700001CB511A162
:1007700003C9CDE90001082000F0C2FA052269464C
:10078000302000F021F905226946102000F080F8A1
:10079000002406E01DF80400A52800D003E0601C3A
:1007A000C4B2052CF6DB00BF052C01D001201CBD16
:1007B0000020FCE7A5A5A5A5A500000000B587B011
:1007C0000121082000F09EF94FF48050ADF8180088
:1007D00010208DF81B0003208DF81A0006A9284868
:1007E000FFF783FE4FF480512548FFF714FF602088
:1007F000ADF8180006A92248FFF777FE8020ADF873
:10080000180028208DF81B0006A91D48FFF76DFE73
:100810004FF4E0711A48FFF7FCFE00F0FDF90021EB
:10082000184800F081FA0020ADF804004FF48270FF
:10083000ADF806000020ADF80800ADF80A00ADF8EC
:100840000C004FF40070ADF80E001820ADF8100049
:100850000020ADF812000720ADF8140001A90948E6
:1008600000F07CFA0121074800F05EFA00200649FA
:10087000086001200549C1F8980107B000BD0000DB
:10088000000C014000380040948121420080214248
:100890002DE9F04107460D46164600200A4908603A
:1008A000384600F003FA8046002405E0FF2000F0FF
:1008B000FDF92855601CC4B2B442F7DB012002499F
:1008C00008604046BDE8F0819881214270B5044639
:1008D000002007490860204600F0E8F9FF2000F0FA
:1008E000E5F9054601200349C1F89801284670BD85
:1008F000988121420080214210B5002014490860EF
:1009000005221449302000F05FF8052212492A2000
:1009100000F05AF80121212000F074F80121222072
:1009200000F070F81A21242000F06CF8282125200E
:1009300000F068F80F21262000F064F80E21202036
:1009400000F060F801200549C1F8940110BD0000D5
:10095000948121423E17000843170008008021427D
:1009600070B50546102000F0CBF90020144908604E
:1009700020222946A02000F027F801201149C1F8C3
:10098000940100BF0E48783800680028FAD107208B
:10099000FFF79CFF04462146272000F033F804F0BF
:1009A000100028B1FF21E12000F02CF8102070BDCC
:1009B00004F0200008B12020F9E7FF20F7E700004D
:1009C00094812142008021422DE9F04107460C46E6
:1009D000154600200A490860384600F067F980464D
:1009E000002605E014F8010B00F060F9701CC6B297
:1009F000AE42F7DB0120024908604046BDE8F081C5
:100A00009881214270B505460C46002007490860D0
:100A1000284600F04BF90646204600F047F9012031
:100A20000349C1F89801304670BD00009881214209
:100A30000080214208B525208DF8000001208DF8A6
:100A4000010007208DF8020001208DF803006846A0
:100A500000F002F808BD000070B5002100230F224D
:100A6000C47804B3154C246804F4E064C4F5E0646D
:100A7000210AC1F10403CA40447804FA03F18478DE
:100A80001440214309010E4C0678A155047804F066
:100A90001F050124AC4005786D11AD0005F1E0257E
:100AA000C5F8004109E0047804F01F050124AC40BA
:100AB000044D0678761145F8264070BD0CED00E037
:100AC00000E400E080E100E0704700000146002003
:100AD000034A506820F440400843506070470000CB
:100AE0000010024029B1064AD2690243044BDA6180
:100AF00004E0034AD2698243014BDA617047000087
:100B00000010024029B1064A92690243044B9A61DF
:100B100004E0034A92698243014B9A6170470000E6
:100B20000010024029B1064AD2680243044BDA6041
:100B300004E0034AD2688243014BDA607047000048
:100B40000010024030B500210022002400232D4D6A
:100B50006D6805F00C0121B1042905D0082923D1C5
:100B600005E0294D056022E0274D05601FE0254D79
:100B70006D6805F47012234D6D6805F4803402250C
:100B800005EB92421CB9214D554305600BE01D4D0C
:100B90006D6805F400351DB11C4D5543056002E03C
:100BA000194D5543056002E0174D056000BF00BFB9
:100BB000144D6D6805F0F0010909154D6B5C056871
:100BC000DD4045600F4D6D6805F4E061090A104D88
:100BD0006B5C4568DD4085600A4D6D6805F46051C9
:100BE000C90A0B4D6B5C4568DD40C560054D6D68FD
:100BF00005F44041890B074D6B5CC568B5FBF3F507
:100C0000056130BD0010024000127A0000093D006D
:100C1000250000203500002000B587B00121082004
:100C2000FFF770FF01218803FFF75CFF4FF460407E
:100C3000ADF8180018208DF81B0003208DF81A005D
:100C400006A91848FFF751FC4FF460411548FFF71B
:100C5000E2FC0020ADF804004FF48270ADF806000D
:100C60000020ADF808000220ADF80A000120ADF820
:100C70000C004002ADF80E003820ADF81000002046
:100C8000ADF812000720ADF8140001A9064800F0E5
:100C900065F80121044800F047F8FF2000F006F84D
:100CA00007B000BD000C01400038004070B505469B
:100CB000002405E0601CC4B2C82C01DD002070BD1A
:100CC00002210E4800F03CF80028F3D029460B48DA
:100CD00000F042F8002405E0601CC4B2C82C01DD1D
:100CE0000020ECE70121054800F02AF80028F3D0A5
:100CF000024800F02EF8C0B2E1E7000000380040E2
:100D000010B50446074800884FF6C77108400549EA
:100D1000088008460088204308800121014800F02F
:100D200003F810BD0038004021B1028842F04002B3
:100D3000028004E002884FF6BF731A4002807047B9
:100D40000246002013890B400BB1012000E0002077
:100D500070470146888970478181704710B500222D
:100D6000028802F441520B884C8823438C88234329
:100D7000CC8823430C8923434C8923438C89234308
:100D8000CC8923431A430280838B4FF2FF742340A4
:100D900083830B8A038210BD704710B500F002F800
:100DA00010BD00000CB50020019000903348006891
:100DB00040F480303149086000BF3048006800F4DA
:100DC000003000900198401C0190009818B90198DB
:100DD000B0F5A06FF1D12948006800F4003010B1DF
:100DE0000120009001E0002000900098012843D1EC
:100DF0002348006840F01000214908600846006858
:100E000020F0030008600846006840F00200086017
:100E10001A484068194948600846406848600846D2
:100E2000406840F4806048600846406820F47C10C8
:100E300048600846406840F4E8104860084600688A
:100E400040F08070086000BF0C48006800F000703F
:100E50000028F9D00948406820F00300074948609D
:100E60000846406840F00200486000BF0348406800
:100E700000F00C000828F9D10CBD00000010024061
:100E800000200240042808D14FF0E021096941F018
:100E900004014FF0E022116107E04FF0E021096901
:100EA00021F004014FF0E022116170470120014957
:100EB000087070470000002010B51348006840F02B
:100EC00001001149086008464068104908400E4971
:100ED0004860084600680E4908400B49086008460B
:100EE000006820F4802008600846406820F4FE0076
:100EF00048604FF41F008860FFF74FFF4FF000601D
:100F00000449086010BD0000001002400000FFF816
:100F1000FFFFF6FE08ED00E010B504460748017833
:100F20000078401C054A107005484454012240F2E4
:100F30002771044800F0E8F810BD000021000020EF
:100F4000880000200038014010B504460FE02078EA
:100F50000D2802D1FFF7E0FF08E020780A2802D12F
:100F6000FFF7DAFF02E02078FFF7D6FF641C207855
:100F70000028ECD110BD000010B540F227711948CF
:100F800000F098F8E0B1184802780078401C164B41
:100F900018701648815C134800F04DF9124800782B
:100FA00013490978884205D1002240F227710D4883
:100FB00000F0AAF840F227710A4800F060F80AE051
:100FC00040F22551074800F075F820B140F2255154
:100FD000044800F054F84FF45871024800F04FF8FC
:100FE00010BD0000003801402000002088000020D3
:100FF0002100002010B540F22771184800F05AF87F
:10100000E0B1174802780078401C154B187015485D
:10101000815C124800F00FF940F227710F4800F090
:101020002EF80F48007810490978884215D100221F
:1010300040F22771094800F067F80EE040F22551B0
:10104000064800F037F840B1044800F0EFF8C4B2A9
:1010500040F22551014800F012F810BD0044004054
:1010600022000020820200202300002001F40072F0
:10107000B2F5007F00D100BFCA430280704710B5AF
:101080000022002340F66A14A14200D100BF0A12D8
:1010900001249440A3B2DC43048010BD21B18289B5
:1010A00042F40052828104E082894DF6FF731A40B7
:1010B0008281704770B5024600240023002500207D
:1010C00040F66A16B14200D100BFC1F3421501F0EB
:1010D0001F03012606FA03F3012D02D1968933403E
:1010E00006E0022D02D1168A334001E0968A334091
:1010F0000C12012606FA04F41688344013B10CB120
:10110000012000E0002070BDF0B503460024002659
:101110000025002040F66A17B94200D100BF1846EA
:10112000C1F3421401F01F06012707FA06F5012C4E
:1011300001D10C3004E0022C01D1103000E0143059
:101140001AB107682F43076002E00768AF430760E2
:10115000F0BD00002DE9F04786B005460E4600249C
:10116000A24600BFA1460027B08900B100BF2F46AC
:101170002C8A4CF6FF700440F08804432C82AC8922
:101180004EF6F3100440B088318908437189084352
:101190000443AC81AC8A4FF6FF400440B08904435D
:1011A000AC8201A8FFF7CEFC1F48874202D1DDF8D0
:1011B00010A001E0DDF80CA0A88900F4004040B1C7
:1011C0000AEBCA0000EB0A1031684900B0FBF1F8E5
:1011D00007E00AEBCA0000EB0A1031688900B0FB97
:1011E000F1F86420B8FBF0F004012009642101FB50
:1011F0001089A88900F4004040B1322000EBC900FA
:10120000B0FBF1F000F00700044308E0322000EBEF
:1012100009106421B0FBF1F000F00F0004432C81B1
:1012200006B0BDE8F087000000380140014688881C
:10123000C0F308007047C1F308028280704700BF06
:10124000FEE700000FB4084B10B504A902AA0398EA
:1012500000F01CF8044602A9002000F0C1F8204666
:1012600010BC5DF814FB0000E113000802E008C8A0
:10127000121F08C1002AFAD170477047002001E010
:1012800001C1121F002AFBD1704700002DE9FF4F5A
:1012900089B09B460446002506E025280BD05A4617
:1012A0000B999047641C6D1C20780028F5D10DB077
:1012B0002846BDE8F08F0027B8460122474900E0E4
:1012C000074314F8013F203B02FA03F00842F7D12C
:1012D00020782E2819D114F8010F47F004072A2886
:1012E0000ED06FF02F022078A0F1300109290CD820
:1012F00008EB880102EB410100EB0108641CF2E7F6
:101300000A98641C50F8048B0A9020780028CED0EC
:10131000642808D0692806D075281ED05A460B9933
:1013200090476D1C58E00A994FF00A0901C90A91CB
:10133000002802DA40422D2102E0390504D52B2194
:101340008DF82010012103E0F90704D02021F7E7F0
:101350008A4608AE0DE00021FAE70A994FF00A0923
:1013600001C90A91F7E74946FEF720FF303106F838
:10137000011D0028F7D1ADEB060000F12009780728
:1013800001D44FF00108C84502DDA8EB090000E0D8
:1013900000208046002706E008A85A46C05D0B9949
:1013A00090476D1C7F1C5745F6DB04E030205A4601
:1013B0000B9990476D1CB8F10001A8F10108F5DC0C
:1013C00005E016F8010B5A460B9990476D1CB9F1D0
:1013D0000001A9F10109F4DC641C65E7092801009A
:1013E0000A68531C0B6010707047000010B56FF056
:1013F0000400FFF747FD0A4800680A49B0FBF1F016
:10140000094908700846007800EB4001C1EBC010A4
:101410004FF6FF7101EAC0000449088010BD0000CA
:101420000800002000127A001C0000201E0000208E
:101430000146114A12884A434FF0E0235A610022C4
:101440009A611A46126942F001021A6100BF4FF018
:10145000E022106900F001021AB100F48032002A83
:10146000F5D04FF0E022126922F001024FF0E023A4
:101470001A6100229A6170471E0000201FB5924831
:1014800000684CF25032B0FBF2F1B1F1807F00D332
:101490001DE021F07F40401E4FF0E02250615017C8
:1014A0000F22002807DA13071D0E884B00F00F04E7
:1014B000241F1D5503E013071C0E854B1C5400BF51
:1014C00000204FF0E02290610720106100BFFFF77D
:1014D00075F9FEF7C1FFFFF723F9FFF787FF4FF418
:1014E000E130FFF7CFF800207A49087005207A49EB
:1014F000086004E04FF400517848FFF78AF8FFF7DE
:1015000035F90028F6D14FF400517448FFF783F8FD
:10151000FFF7F2F9D7E002210020FFF799F804461F
:1015200040F2E73043424FF48052002100902046C1
:1015300000F0ECF86A49886002210120FFF788F882
:10154000044640F2E73043424FF4805200210090BD
:10155000204600F0DBF86249C86002210846FFF728
:1015600077F8044640F2E73043424FF480520021BE
:101570000090204600F0CAF8594908600221032073
:10158000FFF766F8044640F2E73043424FF48052DA
:1015900000210090204600F0B9F8514948604E48BB
:1015A0000068002824DD00200AE04E4951F8201090
:1015B0004B4A52F8202011444A4A42F82010401C5D
:1015C0000428F2DB44480068401E4349086008468E
:1015D000006868B9002009E0424951F8201005224E
:1015E00091FBF2F13F4A42F82010401C0428F3DB43
:1015F000002029E03A4951F820103A4A52F82020B8
:10160000891A374A42F82010114651F82010002953
:101610000EDA114651F82010494252F82020514369
:101620004FF47A7291FBF2F12D4A42F820100AE051
:101630002B4951F8201049434FF47A7291FBF2F193
:10164000274A42F82010401C0428D3DB4FF4807155
:101650002548FEF7D5FF224908614FF40071224862
:10166000FEF7CEFF1E4948611A48007801282AD1AA
:101670000846416900691A4AD268194B9B685B4267
:10168000CDE90032CDE902011548436800684242C5
:1016900016A11B48FFF7D6FD1948FFF755FC19A006
:1016A000FFF752FC1648FFF75BF9202804D1802190
:1016B0001548FEF7B0FF03E080211348FEF7A9FFAD
:1016C00000200449087026E70800002018ED00E01B
:1016D00000E400E0000000200400002000100140B1
:1016E0006000002078000020000C01402A4325649F
:1016F00043256443256443256443256443256400EE
:101700003C0000200A000000000801402DE9F047DD
:1017100006460C4617461D46DDF82080301BA8EB18
:1017200005014843391B90FBF1FA5046FEF71CFDBA
:1017300081464846FEF721FD2844BDE8F087344342
:101740001010013443101001681700080000002039
:101750003C0000006C120008A41700083C000020A8
:101760004C0700007C120008000000000000000090
:1017700000A24A040000000000000000010203046F
:10178000060708090000000000000000000000003B
:10179000000102030401020304060708090204060B
:0417A000080000003D
:0400000508000145A9
:00000001FF
